:020000040800F2
:10000000100A0020810200089F2D00081D2400080E
:100010009D2D0008AB060008B13600080000000066
:10002000000000000000000000000000A32D0008F8
:100030005D07000800000000A12D0008A52D0008A4
:100040009B0200089B0200089B0200089B0200081C
:100050009B0200089B0200089B0200089B0200080C
:100060009B0200089B0200089B0200089B020008FC
:100070009B0200089B020008AD0600089B020008D6
:100080009B0200089B0200089B0200089B020008DC
:100090009B0200089B0200089B0200089B020008CC
:1000A0009B0200089B0200089B0200089B020008BC
:1000B0009B0200089B0200089B0200089B020008AC
:1000C0009B0200089B0200089B0200089B0200089C
:1000D0009B0200089B0200089B0200089B0200088C
:1000E0009B0200089B0200089B0200089B0200087C
:1000F0009B0200089B0200089B0200089B0200086C
:100100009B0200089B0200089B0200089B0200085B
:10011000513200089B0200089B0200089B02000865
:100120009B0200089B0200089B0200089B0200083B
:100130009B0200089B0200089B0200089B0200082B
:100140009B0200089B0200089B0200089B0200081B
:100150009B0200089B0200089B0200089B0200080B
:100160009B0200089B0200089B0200089B020008FB
:100170009B0200089B020008000000000000000035
:100180009B0200089B0200085D3200089B020008E9
:100190009B0200089B020008000000009B02000870
:1001A0009B0200089B020008000000000000000005
:1001B0009B02000800000000000000009B020008F5
:1001C0009B0200089B0200089B0200089B0200089B
:1001D0009B0200089B02000800F002F800F041F8C2
:1001E0000AA090E8000C82448344AAF10107DA4592
:1001F00001D100F036F8AFF2090EBAE80F0013F0A3
:10020000010F18BFFB1A43F001031847D03E00004E
:10021000F03E0000103A24BF78C878C1FAD85207DF
:1002200024BF30C830C144BF04680C607047000070
:100230000023002400250026103A28BF78C1FBD8EF
:10024000520728BF30C148BF0B607047642900F0D7
:10025000F780002070471FB503F02AFF1FBD10B5BF
:1002600010BD00F0E8F91146FFF7F5FF03F09CFA26
:1002700000F006FA03B4FFF7F2FF03BC00F00EFA39
:100280000948804709480047FEE7FEE7FEE7FEE72A
:10029000FEE7FEE7FEE7FEE7FEE7FEE70448054966
:1002A000054A064B70470000292E0008D9010008B6
:1002B00010040020100A0020100600201006002064
:1002C00053EA020C00F069802DE9F04B4FF0000674
:1002D000002B1FBFB3FA83F503FA05F424FA05F6E1
:1002E0005E4012BF1643B2FA82F502FA05F4C5F178
:1002F00020051EBF22FA05FC44EA0C04203556EA0C
:10030000044C4FEA144418BF641C4FF000084FF02F
:100310000009904271EB030C39D3002919BFB1FADF
:1003200081F701FA07F6B0FA80F700FA07F6C7F18D
:1003300020071EBF20FA07FC46EA0C062037B6FB52
:10034000F4FCA7EB0507103F07F01F0BCBF12006CD
:100350000CFA0BFB2CFA06F644BFB3460026202FFE
:10036000A4BF5E464FF0000B5BEA060C08BF4FF0DF
:10037000010B19EB0B09ABFB027C48EB0608C01B19
:1003800006FB02CC0BFB03CC71EB0C01C1E70B4667
:10039000024641464846BDE8F08B13B54FF00000D9
:1003A0004FF00001AFF30080BDE81C407047000033
:1003B0000FB41CB5074B06AA7B446946009005980C
:1003C00000F021F90020694600F030F91CBC5DF80E
:1003D00014FB0000710200002DE9F0410E460446B6
:1003E000002020622046E168884730B3252805D0E8
:1003F000D4E901219047206A401CF2E7E1682046D9
:1004000000278847050018D0A5F14100192802D817
:1004100020354FF400673246294620462760FFF713
:1004200015FF40B1012804D0F61D26F00706083656
:10043000D8E7361DD6E72846DAE7206ABDE8F0811E
:100440002DE9F0410646002410687529314616A5AD
:1004500010D0AFF30080002802DA404213A507E075
:1004600031688A0701D512A502E0490704D511A514
:10047000012401E0AFF3008000210A2206F12407E5
:1004800009E0B0FBF2FCB0FBF2F302FB1C003030E1
:1004900078541846491C0028F3D123462A46304692
:1004A000BDE8F04100F051B8000000002D00000050
:1004B0002B0000002000000010B5431C02E010F8E3
:1004C000011B71B18107FAD14FF0013202C88C1AB9
:1004D0008C4314EAC211F9D0C01A0A0603D0C01E18
:1004E00010BDC01A10BD0A0401D0801E10BD090243
:1004F000FCD0401E10BD4FF0000200B513469446DC
:100500009646203922BFA0E80C50A0E80C50B1F16B
:100510002001BFF4F7AF090728BFA0E80C5048BF7F
:100520000CC05DF804EB890028BF40F8042B08BF1D
:10053000704748BF20F8022B11F0804F18BF00F819
:10054000012B70477047704770472DE9F0470D4603
:1005500099469246044600F124080168880604D5AD
:10056000E06921F01001216000E00120A84201DDD6
:10057000471B00E00027A1697A1902EB0900081A5D
:10058000A0612078C00602D42046AFF30080002688
:1005900008E0D4E901211AF806009047206A401CBF
:1005A000761C20624E45F4DB2078C0060AD5204632
:1005B000AFF3008006E0D4E9012130209047206AA3
:1005C000401C2062381EA7F10107F4DC07E0D4E9E3
:1005D000012118F805009047206A401C2062281E5F
:1005E000A5F10105F3DC2046AFF30080207800067A
:1005F00002D50220BDE8F0870120FBE701694A1C13
:1006000002610878704700B58FB0CDE90131002153
:10061000059105497944CDE9031011466846FFF775
:10062000DBFE0FB000BD0000E5FFFFFF0A6802F827
:10063000010B0A607047754600F02CF8AE460500C5
:100640006946534620F00700854618B020B5FFF7ED
:1006500025FEBDE820404FF000064FF000074FF0A8
:1006600000084FF0000B21F00701AC46ACE8C009D0
:10067000ACE8C009ACE8C009ACE8C0098D467047D9
:1006800010B50446AFF300802046BDE81040FFF7E8
:10069000F1BD000000487047AC030020014918205C
:1006A000ABBEFEE7260002007047FEE7014800F0FF
:1006B000B3B800004C03002001681823CAB2103AF6
:1006C000B2FBF3F2054B6FF30901032A9B5CC36590
:1006D00000D9091D8165084670470000BA4000082E
:1006E00010B5014600208B698A6A4FF0C07453B17F
:1006F000B3F5005F15D072B1012A0CD0022A0AD0DE
:10070000032A09D104E01AB1012A06D0022A03D132
:10071000C96AC90100D5012010BDC96AA142FAD039
:1007200010BD002AF7D0012AF2D0022AF3D0032A02
:10073000F3D010BD30B50468256825F48025256008
:10074000046863608368402B036803D09960006885
:10075000C26030BD9A600068C16030BD704772B63B
:10076000FEE72DE9F0410446876D00F0B5FA064634
:1007700094F835000025022806D08020606584F8B2
:1007800034500120BDE8F0812068016821F0160195
:1007900001602068416921F080014161206C08B945
:1007A000A06C20B12068016821F008010160206878
:1007B000016821F0010101600CE000F08DFA801B5E
:1007C000052807D920206065032084F8350084F8C7
:1007D0003450D7E720680068C007EED194F85C1069
:1007E0003F208840B860012084F8350084F83450F8
:1007F0000020C7E790F83510022903D08021416519
:1008000001207047052180F835100068016821F04B
:1008100001010160002070472DE9F84304464FF0C4
:100820000009CDF8009063484FF41651A56D00689B
:10083000B0FBF1F72E6894F85C10082000FA01F183
:1008400031420FD021680A6852070BD50A6822F09E
:1008500004020A6094F85C108840A860606D40F063
:100860000100606594F85C104FF0010808FA01F08F
:10087000304208D021684969090604D5A860606D36
:1008800040F00200606594F85C100420884030421B
:1008900008D021680968890704D5A860606D40F018
:1008A0000400606594F85C1010208840304218D035
:1008B00021680968090714D5A86020680168490300
:1008C00004D50068000308D5A16C07E00168C905DC
:1008D00003D4016821F008010160216C09B12046B0
:1008E000884794F85C1020208840304231D021683D
:1008F0000968C9062DD5A86094F835000528206838
:10090000016806D0490347D5006800031DD4616C17
:100910001CE021F0160101602068416921F080018E
:100920004161206C08B9A06C20B12068016821F0F9
:100930000801016094F85C103F208840A86084F8AA
:10094000358084F83490216D1FE0E16B09B12046B9
:100950008847606D00282BD0606DC00714D005203B
:1009600084F835002068016821F0010101600098D9
:10097000401C0090B84203D820680068C007F6D138
:1009800084F8358084F83490E16C002910D001B0EF
:100990002046BDE8F04308470168C905D5D4016881
:1009A00021F01001016084F8358084F83490CCE7A0
:1009B000BDE8F883740000202DE9F041044600F002
:1009C0008BF906465CB1022084F83500002584F8D6
:1009D00034502068016821F0010101600DE0012020
:1009E000BDE8F08100F078F9801B052805D92020AA
:1009F0006065032084F83500F2E720680068C007CE
:100A0000F0D12268116820480140D4E9010318435D
:100A1000D4E903363343184363691843A369184381
:100A2000E3691843236A18430843616A042903D120
:100A3000D4E90B1319430843106020684069666AC3
:100A400020F0070130460E43012704280CD1A06A8C
:100A50000643E06A40B12046FFF742FE20B1402045
:100A6000606584F83570BAE7206846612046FFF774
:100A700023FE94F85C203F2191408160656584F8F5
:100A800035700020ACE700003F8010E02DE9F04118
:100A90000446866D90F83400002501280DD0012011
:100AA00084F8340094F835700020012F07D084F8C2
:100AB000340002252846BDE8F0810220FBE702272A
:100AC00084F8357060652046FFF734FE94F85C10BA
:100AD0003F208840B0602068016841F01601016045
:100AE000206C20B12068016841F008010160206895
:100AF000016841F001010160DCE700002DE9F84FD9
:100B0000DFF8ACA1002201240AF1040B03254FF009
:100B10000F090BF1040E00BF0B6804FA02F6334014
:100B2000B3426ED10F7907F00307012F01D0022FD6
:100B300016D187684FEA420805FA08FC27EA0C0735
:100B4000D1F80CC00CFA08FC4CEA070CC0F808C03D
:100B50004768B7430E79C6F3001696403E43466099
:100B60000E79F643B6070AD0C6684FEA420C05FA7A
:100B70000CF7BE438F6807FA0CF73743C7600E794E
:100B800006F00306022E10D1D60800EB8608D8F82E
:100B9000206057074FEAD76C09FA0CF7BE430F697C
:100BA00007FA0CF73743C8F8207006684FEA420C82
:100BB00005FA0CF7BE430F7907F0030707FA0CF7A5
:100BC000374307604E6816F4403F6BD0394E3768A4
:100BD00047F480473760366822F0030706F4804602
:100BE0000096354E07EB060CDCF8086897074FEACD
:100BF000177809FA08F7BE43304FB84202D10027F0
:100C00001FE04FE02E4FB84201D1012719E02D4FD0
:100C1000B84201D1022714E02B4FB84201D103277B
:100C20000FE02A4FB84201D104270AE0284FB8420A
:100C300001D1052705E0274FB84201D1062700E082
:100C4000072707FA08F73743CCF80878DAF8006086
:100C50005746D1F804C09E435FEACC3C00D51E4302
:100C60003E60DBF800605F46D1F804C09E435FEA57
:100C70008C3C00D51E433E60DEF800607746D1F81C
:100C800004C09E435FEACC2C00D51E433E60084F53
:100C90000C373E68D1F804C09E435FEA8C2C00D527
:100CA0001E433E60521C102AFFF436AFBDE8F88F99
:100CB000003C014044380240003001400000024046
:100CC0000004024000080240000C024000100240F4
:100CD000001402400018024001488068704700007C
:100CE0006800002070B5040025D094F83D00002570
:100CF00020B984F83C50204600F0B4F9242084F850
:100D00003D002068016821F0010101602068016850
:100D100041F4004101602068016821F40041016054
:100D200000F00AFB4D4A6168914201D84C4900E04D
:100D30004C49884201D2012070BD4B492368B0FB69
:100D4000F1F15E6826F03F060E435E6063689342F1
:100D500006D94FF4967359434FF47A73B1FBF3F10C
:100D60002368491C1E6A26F03F06314319626168F8
:100D7000914210D84900401EB0FBF1F2521CC2F360
:100D80000B02042A01D2042022E0B0FBF1F0401C47
:100D9000C0F30B001CE0A268F2B301EBC10303EB4C
:100DA0000116431EB3FBF6F35B1C43F480431B05A3
:100DB00049D092B301EBC10202EB0111401EB0FB1E
:100DC000F1F0401CC0F30B0040F4804040F40040C0
:100DD0002168CA694CF6FF739A431043C861D4E98D
:100DE000071001432068026822F0C002114301602D
:100DF000D4E9030101432068826848F2FF339A4333
:100E000011438160D4E9050108432168CA6822F0D2
:100E1000FF021043C86001E00EE016E020680168A0
:100E200041F0010101602564202084F83D00256324
:100E300084F83E50002070BD01EB4106431EB3FB19
:100E4000F6F35B1CB3E70120C2E701EB4101401E52
:100E5000B0FBF1F0401CC0F30B00B7E7A086010027
:100E600080841E0000093D0040420F002DE9FF4F25
:100E700083B09A46DDE9119793460446DDF8408039
:100E8000FFF72AFF054694F83D00202870D119236A
:100E9000012271492046009501F056FB0028F5D14A
:100EA00094F83C00012863D0012084F83C002068BD
:100EB0000168C90703D1016841F0010101602068A0
:100EC000016821F400610160222084F83D00402087
:100ED00084F83E0000262664C4F82480A4F82A90F2
:100EE000608D20855D48E062CDE9007553465A4625
:100EF0002046049901F0AAFA00287CD1208DD0B1B7
:100F0000012821D00228206824D0416980690090FE
:100F1000208D032869D801282BD0514902283B464F
:100F20004FF00002009559D08846204601F00CFB96
:100F3000002860D13CE02068416981690091016826
:100F400041F40071016077E02068016821F480615C
:100F50000160F0E7016821F48061016020680168A8
:100F600041F400610160206841698069009063E09C
:100F70006FE02A463946204601F065FB98BB2068A1
:100F80000069616A08704EE02068016841F40071F0
:100F9000016020680069616A0870606A401C6062D4
:100FA000218D491E2185618D491E6185216838E0AA
:100FB0002068016821F48061016020680069616A2D
:100FC0000870606A401C6062208D401E2085608D24
:100FD000401E60853B46002241460095204601F0B8
:100FE000B3FA00B9D0E706E0FFE72A4639462046C3
:100FF00001F029FB18B1012007B0BDE8F08F20688F
:101000000069616A0870606A401C6062218D491E37
:101010002185618D491E618521684A69D243520745
:101020000AD409690170606A401C6062208D401E0C
:101030002085608D401E6085208D00287FF468AF7C
:10104000202084F83D0084F83E6084F83C60002055
:10105000D2E70220D0E70000020010000000FFFFEE
:101060000400010010B586B0044614216846FFF75D
:1010700042FA14492068884221D1134800210268AD
:1010800042F002020260006800F0020005904FF496
:10109000107000901220CDE901010320039004207C
:1010A000049069460948FFF729FD07481030016898
:1010B00041F400110160006800F40010059006B0D2
:1010C00010BD0000005400403038024000040240CF
:1010D00002488168027811448160704768000020EE
:1010E0000B4810B5016841F400710160016841F4DA
:1010F00080610160016841F480710160032000F0AB
:101100006FF80F2000F006F800F024F8002010BD62
:10111000003C024070B50D4D04464FF47A712878BA
:10112000B1FBF0F00A490968B1FBF0F000F016FBE2
:1011300048B9102C07D200222146501E00F030F88A
:1011400000206C6070BD012070BD000068000020B0
:10115000740000200A4808B5016841F4804101602C
:10116000006800F4804000900548001F016841F0CD
:1011700080510160006800F08050009008BD0000C0
:1011800044380240002809DB00F01F020121914091
:101190004009800000F1E020C0F800117047000015
:1011A000F0B40E4B1B680C46C3F30223C3F10705D2
:1011B000042D00D90425191D072901D2002300E0C0
:1011C000DB1E012606FA05F1491E214099409E408A
:1011D000761E16403143F0BC02F06BBA0CED00E015
:1011E000064900F0070208684FF6FF03184040EA7E
:1011F0000220034A10430860704700000CED00E035
:101200000000FA052DE9F0470E46050065D0DFF82D
:101210001481D8F80000F7B200F00700B04207D2FE
:1012200088F80070D8F8000000F00700B04254D1F0
:1012300028683D4C810712D5400703D5206840F44B
:10124000E05020602878000703D5206840F4604013
:1012500020602068A96820F0F0000843206028780A
:10126000C0072DD0304968680839012812D00228FB
:1012700013D0032811D00968890700292DDA2168C5
:1012800021F0030101432160FFF726FD814641F271
:10129000883A0EE009688903EFE709688901ECE7FD
:1012A000FFF71AFDA0EB0901514502D90320BDE863
:1012B000F0872068696800F00C00B0EB810FEFD177
:1012C000D8F80010404601F00701B14207D9077075
:1012D000006800F00700B04201D00120E7E728785D
:1012E000400705D52068E96820F4E05008432060F5
:1012F0002878000706D52068296920F4604040EA74
:10130000C100206000F038F82168084AC1F30311D9
:10131000515CC8400649086006480068FFF7FAFEBD
:101320000020C4E7003C024008380240C2400008E8
:10133000740000206C00002004480549006809681A
:10134000044AC1F38221515CC840704774000020F8
:1013500008380240D240000804480549006809687E
:10136000044AC1F34231515CC84070477400002008
:1013700008380240D2400008154810B5006810F047
:101380000C02144813D01449042A0FD0082A0ED195
:101390000F4C241F2268236802F03F025B0207D52E
:1013A0002068C0F38810A0FB010106E0084610BDCC
:1013B0002168C1F38811A1FB00010023FEF780FF23
:1013C0002168C1F30141491C4900B0FBF1F010BD97
:1013D000083802400024F40040787D012DE9F84FE0
:1013E00004006ED02078DFF86093C007A9F10405EF
:1013F0004AD009F104000168C1F38101012908D034
:101400000068C0F3810002280AD1D9F80000400228
:1014100006D52868800337D560680028E1D033E01E
:101420006068B0F5803F10D0B0F5A02F286810D0CC
:1014300020F480302860286820F4802028606068CC
:10144000A8B1FFF749FC06460DE0286840F480305B
:10145000F4E740F480202860F7E700BFFFF73CFC8A
:10146000801B642873D828688003F7D50CE0FFF749
:1014700033FC064605E000BFFFF72EFC801B642806
:10148000F0D828688003F7D42078DFF8C08280077E
:101490004FF0000A3ED5AC48001D016811F00C0F5A
:1014A00008D00068C0F3810002280BD1D9F80000F1
:1014B000400207D42868800716D5E068012800D1CB
:1014C00012E03CE1E068B8B10120C8F80000FFF785
:1014D00003FC064605E000BFFFF7FEFB801B022869
:1014E000C0D828688007F7D52868216920F0F8005F
:1014F00040EAC10028600DE0C8F800A0FFF7ECFB4F
:10150000064604E0FFF7E8FB801B02281FD8286886
:101510008007F7D42078000722D58B4E8C4861696C
:10152000703671B101210160FFF7D6FB074604E078
:10153000FFF7D2FBC01B022809D830688007F7D517
:101540000EE0C0F800A0FFF7C7FB074605E082E009
:10155000FFF7C2FBC01B02287DD830688007F7D494
:101560002078400768D5DFF8E0B100270BF13C0B8D
:10157000DBF80000C0000BD4DBF8001041F0805114
:10158000CBF80010DBF80000012700F0805000903D
:10159000704E3068C00510D4306840F48070306000
:1015A000FFF79AFB009005E0FFF796FB0099401AC1
:1015B000022850D83068C005F6D5634EA0686C3656
:1015C00001280FD00528306810D020F001003060CD
:1015D000306820F004003060A068B8B1FFF77CFBF1
:1015E00000900FE0306840F00100F4E740F00400A4
:1015F0003060F7E7FFF770FB0099411A41F288303D
:10160000814268D830688007F4D50EE0FFF764FBAC
:10161000009007E0FFF760FB0099411A41F2883023
:10162000814258D830688007F4D42FB1DBF800101D
:1016300021F08051CBF80010A069D8B34249091DB0
:101640000968C1F3810102294CD00228504607D015
:10165000C8F8600000E03EE0FFF73EFB04463DE0D6
:101660004746C8F86000FFF737FB064605E000BFB5
:10167000FFF732FB801B02282DD828688001F7D4A1
:10168000F4E907010843E168334A490802EB0141E4
:10169000A26841EA82110843217C40EA0160217D71
:1016A00040EA0171C9F8001001203866FFF714FB09
:1016B000044606E045E000BFFFF70EFB001B0228D2
:1016C00009D828688001F7D53BE000BFFFF704FB8D
:1016D000001B022802D90320BDE8F88F286880018A
:1016E000F4D42EE00128F7D0D9F80000E26900F424
:1016F0008001914223D1226A00F03F0191421ED124
:1017000047F6C071626A0140B1EB821F17D1A26A2D
:101710004FF0FF3300F4403103EB5202B1EB024FC4
:101720000DD194F82C2000F07061B1EB026F06D15E
:1017300094F8301000F0E040B0EB017F01D00120C0
:10174000CAE70020C8E70000043802400000474212
:10175000800E4742007000400000FFFF10B5401EA1
:10176000B0F1807F01D3012010BD4FF0E024606113
:101770000F21601701F09DFF0020A061072020616C
:10178000002010BD10B590F83C20012A22D0012283
:1017900080F83C20CA688C6822F4407222434C686E
:1017A00022F4806222430C6822F4006222430C6916
:1017B00022F4805222434C6922F400522243C96928
:1017C000002322F480420A4301684A6480F83C30D6
:1017D000002010BD022010BD70B590F83C20012AF9
:1017E00032D0012480F83C40022280F83D2003687A
:1017F0005A689D6822F070060A6832435A60134B9B
:1018000002689A4214D0B2F1804F11D0104B9A4224
:101810000ED0104B9A420BD00F4B9A4208D00F4B70
:101820009A4205D00E4B9A4202D00E4B9A4204D1F6
:10183000496825F080031943916080F83D400021FC
:1018400080F83C10084670BD022070BD00000140C9
:101850000004004000080040000C0040000401406B
:10186000004001400018004010B5040003D094F877
:101870003D0010B107E0012010BD002084F83C00BD
:10188000204600F01FF8022084F83D00211D20684A
:1018900001F0D2FA012084F8460084F83E0084F872
:1018A0003F0084F8400084F8410084F8420084F846
:1018B000430084F8440084F8450084F83D0000208B
:1018C00010BD000010B586B0044614216846FEF72E
:1018D00012FE2268214C002121480223A2421BD182
:1018E0001F4A1032146844F008041460126802F0B1
:1018F00008020592026842F020020260006800F0CF
:10190000200005904FF485600090CDE90131CDE9CC
:101910000313694613481DE0134CA2421CD1104A20
:101920001432146844F002041460126802F00202D7
:101930000592026842F004020260006800F00400B0
:10194000059080200090CDE901310320CDE90310FE
:1019500069460648FFF7D2F806B010BD000C0040FB
:1019600030380240001402400004014000080240E8
:1019700070B5044690F83C000025012817D00126D8
:1019800084F83C60022084F83D002068826822F0E0
:10199000770222F47F4282600868502838D00DDC3C
:1019A00020284FD005DC90B3102811D14AE0022046
:1019B00070BD302846D040280AD13BE060282FD0A7
:1019C00070280DD0B0F5805F03D0B0F5005F12D065
:1019D000012584F83D60002084F83C00284670BD55
:1019E000CB68D1E90121206801F097FA206881686D
:1019F00041F0770109E0CB68D1E90121206801F0CD
:101A00008CFA2068816841F480418160E1E719E047
:101A1000CA684968206801F09BFB5021206806E0F5
:101A2000CA684968206801F0E5FB6021206801F080
:101A30007EFACEE7CA684968206801F089FB402138
:101A40002068F4E7226801461046F0E72DE9F041EE
:101A5000054690F83C0000260C46012810D00120D5
:101A600085F83C0072B1042A1CD0082A2CD00C2A1C
:101A700050D00126002085F83C003046BDE8F081BA
:101A80000220FBE7D4E90012E368286801F072FB4A
:101A90002868816921F00C01816128688169A26848
:101AA00011430FE0D4E90012E368286801F0B4FBA9
:101AB0002868816921F44061816128688169A26890
:101AC00041EA02218161D5E72868D4E9002C277B0F
:101AD000016A21F480710162C169036A21F0030186
:101AE00041EA0C0121F0F00C39074FF420674CEA71
:101AF000116123F4206307EA02221A43C1610262E2
:101B00002868C16921F00C01C1612868C169A26817
:101B1000114328E02868D4E90027E168036A23F428
:101B200080530362D0F81CC0036A2CF4407C4CEA5A
:101B300007274FF6FF7C27F470470CEA0131394341
:101B40004FF4204723F4204307EA02321A43C161CD
:101B500002622868C16921F44061C1612868C169D5
:101B6000A26841EA0221C16184E710B5040003D0F4
:101B700094F83D0010B107E0012010BD002084F86A
:101B80003C00204600F01EF8022084F83D00211D94
:101B9000206801F051F9012084F8460084F83E00E5
:101BA00084F83F0084F8400084F8410084F8420043
:101BB00084F8430084F8440084F8450084F83D002C
:101BC000002010BD7047000070B586B00446142197
:101BD0006846FEF790FC2468264E00222649022320
:101BE00001252648B44209D10C6844F001040C6078
:101BF000096801F00101059181151CE0B4F1804FE5
:101C000010D01F4DAC4221D10C6844F001040C608F
:101C1000096801F00101059140210091CDE90132EF
:101C2000694624E00C6844F001040C60096801F086
:101C30000101059120210091CDE90132CDE9032573
:101C4000694600BFFEF75AFF06B070BD0D488442DA
:101C5000FAD1086840F0080008600868694600F09A
:101C600008000590A0140090CDE901320648CDE9A6
:101C70000323E7E700000140303802400000024043
:101C80000004004000080040000C024070B504460B
:101C900090F83C0000260D4601280FD0012084F862
:101CA0003C006AB1042A1DD0082A2FD00C2A3FD04C
:101CB0000126002084F83C00304670BD022070BD33
:101CC000206801F03DF92068816941F008018161D7
:101CD0002068816921F004018161206881692A6995
:101CE000114311E0206801F05BF92068816941F43B
:101CF000006181612068816921F4806181612068CF
:101D000081692A6941EA02218161D2E7206801F0F4
:101D10007DF92068C16941F00801C1612068C1698D
:101D200021F00401C1612068C1692A69114311E0F1
:101D3000206801F09FF92068C16941F40061C16128
:101D40002068C16921F48061C1612068C1692A6984
:101D500041EA0221C161ACE710B5040003D094F858
:101D60003D0010B107E0012010BD002084F83C00C8
:101D7000204600F01FF8022084F83D00211D206855
:101D800001F05AF8012084F8460084F83E0084F8F7
:101D90003F0084F8400084F8410084F8420084F851
:101DA000430084F8440084F8450084F83D00002096
:101DB00010BD000008B501681448814201D11448E3
:101DC00010E01348001FB1F1804F0BD0114A91422F
:101DD00010D1016841F002010160006800F00200CA
:101DE000009008BD016841F001010160006800F049
:101DF0000100F5E7084A9142F3D1016841F004017E
:101E00000160006800F00400EAE700000000014003
:101E100044380240000400400008004010B5044669
:101E2000022249B104290ED0082913D094F84100A8
:101E3000012816D0012010BD94F83E000128F9D1E8
:101E400084F83E200FE094F83F000128F2D184F896
:101E50003F2008E094F840000128EBD184F84020AE
:101E600001E084F841200122206801F049F8164978
:101E70002068164A884201D0904203D1436C43F453
:101E8000004343642068884213D0B0F1804F10D0E3
:101E90000F4988420DD00F4988420AD00E49884226
:101EA00007D0904205D00D49884202D00C498842A3
:101EB00004D1816801F00701062903D0016841F0CF
:101EC00001010160002010BD00000140000401403C
:101ED0000004004000080040000C004000400140A9
:101EE0000018004070B5044690F83C00012812D05C
:101EF000012584F83C50022084F83D00204601F082
:101F0000E1F801004FF0000007D084F83D5084F85C
:101F10003C00012070BD022070BD2168CA6822F01B
:101F20004002CA602168CA6822F48042CA6084F80C
:101F30003D5084F83C00002070BD704770470000A1
:101F4000F8B5016804460868CA684B6910F00F0FBD
:101F50004FF0000559D003F0010602F490773743A3
:101F600065D0C10705D0D10503D5216C41F0010131
:101F70002164410705D5D90703D0216C41F0020146
:101F80002164810705D5D90703D0216C41F00401F4
:101F90002164010707D502F02001314303D0216CF1
:101FA00041F008012164216C00293AD0800604D553
:101FB000900602D5204601F007FA20684069216C9E
:101FC000C0F38010090700D460B3204601F0C7F9C0
:101FD00020684069400621D52068143050E8001F71
:101FE00021F0400140E80012002AF5D1A06BA8B111
:101FF0006C490165A06BFEF7FDFB002811D0A06BBA
:10200000016D01B0BDE8F040084783060FD5930687
:102010000DD52046BDE8F84001F0D6B92046FFF7BF
:102020008DFFF8BD2046FFF789FF2564F8BD266BBC
:102030002023012E79D1C60677D5D60675D5086836
:10204000486800904869400640D5A16B0868406820
:102050000004000CEAD0A28D8242E7D9E085C8696D
:10206000B0F5807F2DD020680C3050E8001F21F49F
:10207000807140E80012002AF5D12068143050E841
:10208000001F21F0010140E80012002AF5D120686C
:10209000143050E8001F21F0400140E80012002AEF
:1020A000F5D184F83E30256320680C3050E8001FDD
:1020B00021F0100140E80012002AF5D1A06BFEF7D4
:1020C00050FBA08DE18D401A81B229E0A08DE18DF9
:1020D000401A81B2E08D0028A8D00029A6D020683F
:1020E0000C3050E8002F22F4907240E80026002EB9
:1020F000F5D12068143050E8002F22F0010240E8AA
:102100000026002EF5D184F83E30256320680C307F
:1021100050E8002F22F0100240E80023002BF5D1F8
:102120002046FFF70AFFF8BDFFE705062BD5150689
:1021300029D594F83D002128F5D1A068B0F5805F3D
:1021400001D12069B0B1206A411C21622168007868
:102150004860E08C401E0004000CE084E3D120685D
:10216000C16821F08001C1602068C16841F0400170
:10217000C160D8E7206A0088C0F308004860206A80
:10218000801C2062E5E74006CDD55006CBD5CA6855
:10219000204622F04002CA6084F83D3000F03DF94C
:1021A000C1E700006932000870B5040004D094F85B
:1021B0003D00002510B106E0012070BD84F83C50C0
:1021C000204600F023F8242084F83D002068C168F0
:1021D00021F40051C160204601F056F920680169E0
:1021E00021F4904101612068416921F02A01416197
:1021F0002068C16841F40051C1602564202084F842
:102200003D0084F83E00002070BD0000F0B587B0AE
:10221000064614216846FEF76EF93649DFF8D0C04D
:102220003768002533481039032202230824674504
:102230001ED1066846F400260660006800F40020FF
:102240000590086840F00100086008688DE82C00DF
:1022500000F00100CDE90440694603922648FEF7EC
:102260004DFC002211463420FEF79AFF34203AE05C
:10227000DFF888C0674538D1076847F080470760B6
:10228000006800F080400590086840F02000086079
:102290000868694600F020000590C0208DE82900FC
:1022A000CDE903241648FEF729FC174C1548206099
:1022B0004FF02060C4E901054FF48060C4E9035089
:1022C0006561A561E561256220466562FEF774FBE4
:1022D00008B1FEF744FAB463002211465220A66307
:1022E000FEF75EFF5220FEF74DFF07B0F0BD000085
:1022F000004C00404038024000000240007800409E
:1023000000140240586002404C03002090F83E3018
:10231000202B0ED159B152B190F83C30012B08D08E
:10232000012380F83C300023036301F03DB9012014
:10233000704702207047000008480949C2791AB95D
:10234000027A0AB9407A38B10220886303490A2226
:10235000A1F17600FFF7DABF0120F6E7360300208F
:1023600000000020704700002DE9F843044690F873
:102370003D001F4616460D4620284CD1C5B1BEB1C2
:1023800094F83C00012846D0012084F83C004FF02E
:102390000008C4F84080212084F83D00FEF79CFC32
:1023A000A6848146E684A068B0F5805F03D004E08F
:1023B0000120BDE8F883206928B12E465FF00005B2
:1023C00084F83C800EE00026FAE78021204601F0E8
:1023D00033F9A0B9AEB116F8010B21684860E08C62
:1023E000401EE084E08C4B464FF00002009700282E
:1023F000EBD14FF04001204601F01EF930B103202F
:10240000D7E735F8020BC0F30800E6E7202084F890
:102410003D000020CDE70220CBE77047FEE70168D2
:102420004A69D24352050FD46FF480624A61002199
:1024300040F8301F202242738173026942F0040287
:102440000261017301207047002070472DE9F84FA9
:102450000446006889460B9D01689846174641F47A
:10246000806101602068016841F48071016000951D
:102470004FF0011B0022594620460A9B00F064F8E9
:102480004FF4007A40B120680068C00501D5C4F857
:1024900040A00320BDE8F88F216809F0FE00086124
:1024A0002B46284920460A9A00F082F8F0BB2068A3
:1024B0004169806900902A4620460A9900F0F6F8A2
:1024C00040B1206C04283AD12068016841F40071C1
:1024D000016034E0FEB2B8F1010F09D02168380A7A
:1024E00008612A4620460A9900F0E0F80028E8D161
:1024F000206806612A4620460A9900F0D7F800288D
:10250000DFD12068016841F48071016000950022EC
:10251000594620460A9B00F017F80028B3D12168DD
:1025200009F0FF0040F00100086100E007E02B46E1
:10253000044920460A9A00F03BF80028AAD001205E
:10254000A8E70000020001002DE9F0471E46904672
:102550000D460446C1F30747DDF8209008E0701CE3
:1025600006D0FEF7B9FBA0EB0900B0420FD876B158
:102570002068012F18D0806925EA00000004000CB3
:1025800014D000214145EAD00020BDE8F0870020AA
:1025900044F8300F20216173A073216941F02001BC
:1025A000216120730120F0E74069E5E70121E9E7B7
:1025B0002DE9F0479A4691460E46044600254FF015
:1025C0002008C1F3074725E020684069C043400563
:1025D00014D42068016841F40071016021686FF42F
:1025E00080604861256384F83D8084F83E50206C0B
:1025F00040F00400206484F83C501FE0B9F1FF3F34
:1026000008D0FEF769FBA0EB0A0149450CD8B9F1E7
:10261000000F09D02068012F13D0806926EA00003E
:102620000004000C0BD0CFE744F8305F84F80D8035
:10263000A573206940F02000206125730120BDE8CA
:10264000F0874069EAE72DE9F041002590460E4603
:102650000446202717E04069C043C0060CD454F854
:10266000301B6FF01000486144F810596777A57768
:10267000206A2062257717E0FEF72EFBA0EB08000A
:10268000B04208D83EB120684169C9434906E2D446
:102690000020BDE8F08144F8305F6773A5732069BE
:1026A00040F02000206125730120F2E770B5164646
:1026B0000D4604460DE02046FFF7B1FE08B10120AB
:1026C00070BD681C05D0FEF707FB801BA84207D829
:1026D00035B120684069C0430006ECD4002070BDCD
:1026E000002044F8300F20216173A073216941F06C
:1026F000200121612073E2E72DE9FF5F82460FA8E8
:10270000DDF838B090E8A0010E4600246FF0010912
:1027100029683868491C884206DA56F824303AF8A5
:10272000142009EB40001A5229683A68481C82427A
:102730001DD10022104605E056F8243033F9103040
:10274000401C1A448142F7DC92FBF1F0029921F817
:102750001400D8F800202968521A5BF8241009EBFD
:102760004202022C885202D10021C8F800102868C9
:102770003968401C814244DD0020022208E000BF8D
:1027800056F8241002EB4003CB5A21F81030401CBD
:102790002968491E8142F3DC56F824102B683AF868
:1027A000142009EB43000A52002108462A6805E07C
:1027B00056F8243033F91030401C19448242F7DCBB
:1027C00091FBF2F0029921F814005BF82420D8F86C
:1027D000001022F81100D8F80000022811D15BF88F
:1027E0002400032100F09AFA51EC100B01F01CFBBD
:1027F000039921F81400D8F80000022801D1022C16
:102800000CD0641C032C83DB3868401C3860D8F87B
:102810000000401CC8F80000BDE8FF9F4FF0FF31EA
:10282000C8F80010F0E7000010B586B00446642236
:10283000062103A88DE8070001233B22D121084887
:10284000FEF714FBBDF80C0040BA2080BDF80E0066
:1028500040BA6080BDF8100040BAA08006B010BD3C
:102860007800002010B586B004466422062103A833
:102870008DE8070001234322D1210848FEF7F6FA2C
:10288000BDF80C0040BA2080BDF80E0040BA608050
:10289000BDF8100040BAA08006B010BD780000203E
:1028A00030B587B00446012005A9CDE900106425A4
:1028B00003460222029519211148FEF7D7FA9DF826
:1028C0001400002819D0072003A9CDE90010012326
:1028D0000322029519210A48FEF7C8FA9DF8120052
:1028E0008DF81400000708D4BDF80C002080BDF856
:1028F0000E006080BDF81000A08007B030BD000061
:1029000078000020154808B5016841F020010160F9
:10291000016801F020010091016841F001010160AE
:10292000016801F001010091016841F008010160B6
:10293000016801F008010091016841F004010160A3
:10294000016801F004010091016841F00201016099
:10295000006800F00200009008BD0000303802401E
:1029600010B592B000240F941C2108A81094FDF714
:10297000C2FD20216846FDF7BEFD21481F490160C8
:102980000721C0E9011449F63F41C0E9031444613D
:102990008461FFF7E1F908B172B6FEE70F940FA961
:1029A00017481094FEF718FF08B172B6FEE76020D2
:1029B000089040F2DB50CDE909040B940C940D947F
:1029C000002208A90E480E94FFF760F908B172B60C
:1029D000FEE700944FF40050CDE9044002940194C6
:1029E0000394694606480794FEF7CCFE08B172B618
:1029F000FEE70348FFF7E8F812B010BD0000014001
:102A0000CC00002010B58AB0002407941C21684631
:102A10000894FDF770FD17484FF0804101600721D1
:102A2000C0E9011449F63F41C0E903148461FFF78E
:102A300093F908B172B6FEE7079407A90D48089408
:102A4000FEF7CAFE08B172B6FEE76020009040F2C1
:102A5000DB50CDE901040022694606480494FFF7E3
:102A600015F908B172B6FEE70248FFF7ADF80AB0F3
:102A700010BD00001401002010B58AB00024079496
:102A80001C2168460894FDF736FD1748154901607A
:102A90000721C0E9011449F63F41C0E903148461EC
:102AA000FFF75AF908B172B6FEE7079407A90E4876
:102AB0000894FEF791FE08B172B6FEE76020009020
:102AC00040F2DB50CDE90104002269460648049437
:102AD000FFF7DCF808B172B6FEE70348FFF774F8B9
:102AE0000AB010BD000400405C01002010B58AB09F
:102AF000002407941C2168460894FDF7FCFC174845
:102B0000154901600721C0E9011449F63F41C0E9B8
:102B100003148461FFF720F908B172B6FEE7079449
:102B200007A90E480894FEF757FE08B172B6FEE7F3
:102B30006020009040F2DB50CDE90104002269469C
:102B400006480494FFF7A2F808B172B6FEE70348FE
:102B5000FFF73AF80AB010BD00080040A4010020B9
:102B600030B58FB0002409940A940B94142104A862
:102B70000C94FDF7C0FC34480D940E94009401941D
:102B800002943049039401601021C0E90114611ED0
:102B9000C0E903148461FEF767FE08B172B6FEE770
:102BA0004FF48050099009A92748FEF7E1FE08B1CB
:102BB00072B6FEE72448FEF7D8FF08B172B6FEE70A
:102BC000042004905020CDE9050404A91E4808946F
:102BD000FFF788F908B172B6FEE70D940DA91A48FF
:102BE0000E94FEF7F9FD08B172B6FEE70125CDE9B6
:102BF000004502940022694613480394FEF726FF1D
:102C000008B172B6FEE702200090019004226946E6
:102C10000D48FEF71BFF08B172B6FEE708226946B1
:102C200009480195FEF712FF08B172B6FEE70C22C3
:102C300069460548FEF70AFF002801D072B6FEE794
:102C40000FB030BD000C0040EC01002010B590B07A
:102C5000002409940A940B94142104A80C94FDF701
:102C60004AFC2D480D940E94009401940294294935
:102C7000039401601021C0E901144FF6FF71C0E90F
:102C8000031444618461FEF7EFFD08B172B6FEE7FC
:102C90004FF48050099009A91F48FEF769FE08B15A
:102CA00072B6FEE71C48FEF760FF08B172B6FEE799
:102CB000042004906020CDE9050404A91648089476
:102CC000FFF710F908B172B6FEE70D940DA912488E
:102CD0000E94FEF781FD08B172B6FEE70220009067
:102CE000CDE90104002269460B480394FEF7AEFECD
:102CF00008B172B6FEE70120CDE900400422694622
:102D00000548FEF7A3FE002801D072B6FEE710B01A
:102D100010BD000000040140340200202DE9F047FE
:102D20000E4607460024A1F1010813E0651C0EE0E1
:102D300037F9140037F91590484507DD01F0A3F87D
:102D400027F8149001F070F827F815006D1CB542B3
:102D5000EEDB641C4445E9DB06EBD67020F0010095
:102D6000F107384408D0B0F9000001F08CF800BF3A
:102D700041EC100BBDE8F087B0F9001030F9020CFF
:102D8000084401F080F89FED031B53EC112B01F078
:102D900091F8EDE7000000000000E03FFEE7FEE7ED
:102DA00070477047FEF794B910B594B03421684667
:102DB000FDF7A1FB14210DA8FDF79DFB1848002489
:102DC000016841F080510160006800F0805012906D
:102DD0001448016841F4404101600068102100F48A
:102DE000404012900A2000900120CDE90301CDE976
:102DF00005046846FEF7F2FA08B172B6FEE70F2046
:102E0000CDE90D040F94109400210DA81194FEF744
:102E1000F9F9002801D072B6FEE714B010BD000029
:102E200040380240007000400248016841F47001DF
:102E30000160704788ED00E0F0B50268254C264D32
:102E4000264E274F274B4FF0804CA04209D06045BB
:102E500007D0A84205D0B04203D0B84201D0984272
:102E600004D122F0700E4A6842EA0E02A0421BD042
:102E7000604519D0A84217D0B04215D0B84213D03F
:102E8000984211D0184DA8420ED0184DA8420BD030
:102E9000174DA84208D0174DA84205D0164DA8429C
:102EA00002D0164DA84203D122F44075CA682A43C5
:102EB0004D6922F080022A4302608A68C2620A6871
:102EC0008262A04201D0984201D1096901630121C7
:102ED0004161F0BD000001400004004000080040D6
:102EE000000C00400004014000400140004401404B
:102EF0000048014000180040001C00400020004035
:102F000010B501F01F030121046A99408C4304624B
:102F1000016A9A401143016210BD10B5846842EA0B
:102F2000032224F47F440A432243826010BD826856
:102F300022F070020A4342F00701816070470000EE
:102F4000F0B5026A22F001020262036A42688469F3
:102F5000124E24F073050C682C4323F002058B6895
:102F60002B430D4DA84201D0B04205D123F00807F4
:102F7000CB683B4323F00403A84201D0B04205D103
:102F80004D6922F4407215438A692A434260846184
:102F9000496841630362F0BD000001400004014044
:102FA000F0B5026A22F010020262026A4368846984
:102FB0000D6824F4E64444EA05248D6822F02002DA
:102FC00042EA05120F4D104EA84201D0B04206D180
:102FD000CF6822F0800242EA071222F04002A842A3
:102FE00001D0B04207D14D6923F4406343EA850321
:102FF0008D6943EA850343608461496881630262A5
:10300000F0BD00000000014000040140F0B5026A7C
:1030100022F480720262026A4368C46922F4007278
:1030200024F073050C68124E2C438D6842EA052289
:103030000E4DA84201D0B04206D1CF6822F4006202
:1030400042EA072222F48062A84201D0B04207D1AE
:103050004D6923F4405343EA05138D6943EA051390
:103060004360C4614968C1630262F0BD0000014071
:103070000004014030B5026A22F480520262046A00
:103080004268C3690D6823F4E64343EA05238D686B
:1030900024F4005444EA0534084DA84202D0084DF7
:1030A000A84204D14D6922F4804242EA851242606E
:1030B000C36149680164046230BD00000000014042
:1030C0000004014070B5036800249A6822F070057E
:1030D0004A682A4322F007050A682A439A604A6828
:1030E00012F00F0F31D11211082A2ED2DFE802F0B0
:1030F0002E2E2E2E0B2127040B69D1E90221006808
:10310000FFF70BFF22E00A68052A10D00268136A55
:10311000156A25F00105156202689569096925F0AF
:10312000F00545EA01119161006803620EE001209B
:1031300070BD0A698968006800F00AF806E00A694B
:103140008968006800F056F800E00124204670BD50
:1031500010B5036A046A24F001040462846924F04F
:10316000F00444EA021423F00A020A438461026272
:1031700010BD000070B5046A24F001040462846983
:10318000056A154EB04214D0B0F1804F11D0134EE5
:10319000B0420ED0124EB0420BD0124EB04208D008
:1031A000114EB04205D0114EB04202D0104EB04286
:1031B00003D124F00304144301E044F001041A078E
:1031C00024F0F00444EA126225F00A0301F00A0137
:1031D00019438261016270BD00000140000400409B
:1031E00000080040000C0040000401400040014085
:1031F0000018004010B5036A23F0100303628369CE
:10320000046A23F4704343EA023224F0A00343EA41
:1032100001118261016210BD30B5046A24F010040E
:1032200004628469056A24F4407444EA022222F4A8
:1032300070444FF6FF7202EA03322243A02425F0C5
:10324000A00304EA011119438261016230BD00004C
:103250000148FEF775BE00007C0200200148FEF721
:103260006FBE0000C002002010B5806B0021C18538
:10327000C184FEF763FE10BD70B5846B20684069A1
:1032800094F83D10C0F3C0100025212904D118B1D5
:10329000E584204600F08AF82068406994F83E10E2
:1032A000C0F38010222904D118B1E585204600F032
:1032B00056F8206C40F0100020642046FEF73EFED9
:1032C00070BD10B50146806B09680968C9052FD427
:1032D0000021C18501680C3151E8002F22F4807271
:1032E00041E80023002BF5D10168143151E8002F8B
:1032F00022F0010241E80023002BF5D101681431CE
:1033000051E8002F22F0400241E80023002BF5D1C4
:10331000202180F83E10016B012909D101680C3190
:1033200051E8002F22F0100241E80023002BF5D1D4
:10333000016B012902D0FEF7FFFF10BD818DFEF762
:10334000FCFD10BD10B5806B016B012902D0FFF7A9
:1033500009F810BD818D4908FEF7EFFD10BD016829
:103360000C3151E8002F22F4907241E80023002B29
:10337000F5D10168143151E8002F22F0010241E833
:103380000023002BF5D1016B012909D101680C3113
:1033900051E8002F22F0100241E80023002BF5D164
:1033A000202180F83E1000210163704701680C3134
:1033B00051E8002F22F0C00241E80023002BF5D194
:1033C000202180F83D10704708B590F83E10222962
:1033D00001D0022008BD82684FF480539A4201D187
:1033E000016921B1816A9A421BD04AB10AE00268A0
:1033F000816A5268C2F308020A80816A891C08E067
:10340000026972B10268526802F07F020A70816A32
:10341000491C8162C18D491E0904090CC18503D074
:1034200019E002685268F1E70168CA6822F02002D8
:10343000CA600168CA6822F48072CA6001684A6979
:1034400022F001024A61202180F83E10016B01291F
:1034500003D0FEF771FF002008BD00210163016861
:103460000C3151E8002F22F0100241E80023002B1C
:10347000F5D101680A68D20602D50A684968009148
:10348000818DFEF75AFDE6E770B5044600680169D4
:10349000E26821F44051114301612169A068E269A9
:1034A00008436169114308432168CA6849F20C6303
:1034B0009A430243CA6020684169A26921F44071BD
:1034C0001143416134492068884208D03349884219
:1034D00005D03349884202D03249884202D1FDF7F3
:1034E0003BFF01E0FDF728FFE26900231921642575
:1034F0003226B2F5004F626828D0A0FB0101930F7D
:103500009200FCF7DDFE0146B0FBF5F06FF018020B
:10351000504301EB800006EB0010B0FBF5F000F02B
:10352000F002B1FBF5F002EB0012B1FBF5F06FF029
:103530001803584301EB800006EB0010B0FBF5F0D8
:1035400000F00F0021681044886070BDA0FB0101ED
:1035500092185B41FCF7B4FE0146B0FBF5F00201A6
:10356000B1FBF5F06FF01803584301EB800006EB58
:10357000C000B0FBF5F000F0F80002EB4002B1FB38
:10358000F5F0584301EB800006EBC000B0FBF5F00E
:1035900000F00700D6E700000010014000140140D1
:1035A00000180140001C014038B581628285002569
:1035B000134604460564222084F83E00A26B1B4893
:1035C000D063A26B1A481064A26B1A48D064A06B37
:1035D0000A4605652168A06B091DFDF757FA2068AA
:1035E00001684068009084F83C5020680C3050E836
:1035F000001F41F4807140E80012002AF5D12068D4
:10360000143050E8001F41F0010140E80012002A88
:10361000F5D12068143050E8001F41F0400140E827
:103620000012002AF5D1002038BD0000C332000886
:1036300045330008793200082DE9F04198461746D5
:103640000E460446069D27E0681C25D02DB1FDF7E7
:1036500043FBA0EB0800A8421ED920680C3050E8BC
:10366000001F21F4D07140E80012002AF5D1206833
:10367000143050E8001F21F0010140E80012002A38
:10368000F5D1202084F83D0084F83E00002084F825
:103690003C000320BDE8F0812068006836EA0000A5
:1036A00004D00020B842CFD00020F3E70120F9E792
:1036B000FEE70907090E002804DB00F1E02080F88E
:1036C0000014704700F00F0000F1E02080F8141D96
:1036D000704770B506884FF448656C10AE4201D94A
:1036E000058002E0A64200D204800888A84201D9E1
:1036F0000D8002E0A04200D20C801088A84201D9BF
:10370000158002E0A04200D214801888A84201D996
:103710001D8070BDA042FCD21C8070BD024630B539
:103720001C480B46006880B200F038F81A4D108033
:10373000286880B200F032F82C1D5080206829687B
:10374000401A80B200F02AF89080201D006821689D
:10375000401A80B200F022F8D0801088A0F6020053
:103760004142142091FBF0F119805188A1F6020129
:10377000494291FBF0F058809088A0F60200404248
:1037800080009880D088A0F6020040428000D88057
:1037900030BD000034040140380400404FF2A8015D
:1037A00001EB800080B27047F6B001251420CDE90E
:1037B000680500246A95489449945F94782108A884
:1037C0006094FCF798FE08A85C9012A85D901CA875
:1037D0005E90142157A8FCF78EFE57A85490801DC8
:1037E00055905AA86195629556904A944B9452947C
:1037F0007821539426A8FCF77EFE26A84F9030A887
:1038000050903AA85190142163A8FCF774FE63A865
:103810004C90801D4D9066A84E90FDF761FCFFF71F
:10382000C3FAFFF76FF8FF48FD490160FE49C0E9A0
:103830000114A903C0E9034144618461C4610462C5
:10384000FDF750FA08B172B6FEE7F948F7494FF4B0
:10385000E1350160C0E901540C26C460C0E90446AA
:103860008461C461FEF7A0FC08B172B6FEE7FFF701
:1038700077F8FFF7C7F8FFF7FFF8FFF737F9ED48DC
:10388000016841F4001101600068002200F400109A
:10389000009011460E20FDF783FC0E20FDF772FC10
:1038A000E348E54944300160C0E90154C460C0E91F
:1038B00004468461C461FEF777FC08B172B6FEE786
:1038C000FFF74EF9FFF7C2F9D9490A22BA31A1F13F
:1038D0007600FEF71BFDD34800215430FEF79EFA18
:1038E000D04800219C30FEF799FACE480021E43000
:1038F000FEF794FACE480021D838FEF78FFACC486C
:1039000000214838FEF78AFAC94800219038FEF7AE
:1039100085FAC74804219038FEF780FAC448082188
:103920009038FEF77BFAC2480C219038FEF776FA01
:10393000C24CC2484630FEF795FFC0484030FEF703
:1039400073FFBE484C30FEF7ABFF6AA969A868ADAB
:1039500054AACDE90025CDE90201B8485FAB48AAD9
:103960005CA94030FEF7C8FE62A961A84CAACDE967
:103970000025CDE90201B14852AB4AAA4FA9463011
:10398000FEF7BAFEBDF92C114FF47A7091FBF0F2FC
:10399000E08AAA4B104400B200EE100AE082D4ED97
:1039A0000B0AB8EEC00AB4F9140094ED0C1A081A08
:1039B00020EE800A00EE900A20331A1FF8EEE00A8B
:1039C00002F1360101EE200ABDEEC00A10EE100A27
:1039D00020839A4800F0F4F9984AB4F918806032CC
:1039E000B2F900C0CDF81881B2F902700CEB0800F2
:1039F000C11B608901EB000AAAF1140300EE103A22
:103A0000B2F904304593B4F90C60B8EEC01AF11A5B
:103A1000BDF920314493A1EB030B00EE10BABDF9C0
:103A20002A31F8EEC00A94ED070A0793B4F9105052
:103A3000D4ED081AC3EB4501BDF9228100EE201A2E
:103A40002944CDF8C88100EE901AB4F90E30B2F9CD
:103A50000690F8EEE00AC8EB430809EB0302A2EB7C
:103A6000080201EEA01A00EE902A719294ED092A44
:103A7000BDF92881F8EEE00ACDF81480B4F91220DF
:103A8000C8EB420802EE201A08EB020E00EE90EAA4
:103A9000F8EEE02AD4ED0A0A00EEA21A02EE90BA7D
:103AA000F8EEE22ABCEEC11A11EE108AA4F80280E8
:103AB000DDF81881ACEB080CCDF818C18444BC4487
:103AC00001EE10CADDF8C881B8EEC11A00EE221A64
:103AD00002EE901AA3EB0901A1EB0801F8EEE22A2D
:103AE00001EEA21A02EE901AF8EEE22ADDF8148036
:103AF0000AF10503A8EB020C02EE221A02EE90CAAC
:103B00000F38F8EEE22A00EEA21ABCEEC11A11EE4E
:103B1000102A01EE103AA280449BF8EEC12AC3EBB2
:103B20004602459B33449A1A01EE102A079BB8EED1
:103B3000C11A5B1B40EE012A01EE103AB8EEC11A21
:103B400041EE812A01EE101AB8EEC11A42EE012AA6
:103B500001EE10CAB8EEC11A40EE812ABCEEE21A9C
:103B600002EE902A11EE101AF8EEE22AE180DDF85A
:103B700018C1719A07EB0C01084401EE100AB8EE67
:103B8000C11A00EE221A00EE103AB8EEC00A01EE99
:103B9000801A00EE102AB8EEC00A02EE001A00EEFB
:103BA00010EAB8EEC00A00EE801ABCEEC10A10EEB0
:103BB000100A2081A06B00F0E7F8204B0DF1100CEB
:103BC0005233A3F14802911E881E8CE80F00831E19
:103BD000021F283126308DE80F00031F22321039D2
:103BE000103800F051F815496031A1F10800FFF7D5
:103BF00095FD124B08339A1E911E881EFFF769FD32
:103C00000F49608848638903A08848630D49E088AC
:103C100008600D492089086008485830C28815E0BE
:103C20000054004078000020A0860100004C0040B5
:103C30007C02002030380240007800400000002064
:103C40000000014034040040340800408188CDE980
:103C500000124388028807A10A48FCF7A9FB09481B
:103C6000FCF72AFC074982B26423A1F18800FEF721
:103C70007BFB5EE6242564202564202564202564E2
:103C80003B000000040300202DE9F04F3C4DDDE92E
:103C90000E96DDE90C7ADDE909BEAC6BDDF82CC0CF
:103CA000012C6BD1374C94F80080B8F17E0F03D112
:103CB00095ED0D0A80ED000A20787F2803D195ED5F
:103CC0000D0A81ED000A2078802806D195ED0D0AB5
:103CD000BCEEC00A10EE100A30802078812807D18F
:103CE00095ED0D0ABCEEC00A10EE100AACF800000B
:103CF0002078822806D195ED0D0ABCEEC00A10EEA0
:103D0000100A38802078832807D195ED0D0ABCEE83
:103D1000C00A10EE100AAAF800002078842807D103
:103D200095ED0D0ABCEEC00A10EE100AA9F80000CD
:103D30002078852803D195ED0D0A82ED000A2078C0
:103D4000862803D195ED0D0A83ED000A2078872897
:103D500003D195ED0D0A8BED000A2078882803D158
:103D600095ED0D0A8EED000A2078892806D195ED93
:103D70000D0ABCEEC00A10EE100A3080BDE8F08FCC
:103D8000000000203603002010B5012808D00228CA
:103D900010D10949BDE81040A1F10A0000F030B887
:103DA000064CE06B401CE0630348093800F01DF846
:103DB00084ED0D0A10BD000040030020000000202B
:103DC00070B508781D4616460C467E2804D1601C46
:103DD00000F00BF886ED000A20787F2804D1601CE3
:103DE00000F003F885ED000A70BD08B500216A46B1
:103DF000435C5354491C0429FADB9DED000A08BDBD
:103E00001EB500226B46845C9C54521C0A2AFADBC5
:103E10005FF0000233F8120021F81200521C052A4C
:103E2000F8DB08461EBD00004FEA41034FEA53533A
:103E3000A3F58063D3F11E03C8BFD3F1210C0CDDC1
:103E40004FF0004242EAC12242EA505232FA03FCE9
:103E50008CEAE17CACEBE1707047102BC4BF002012
:103E6000704703F5787CBCF1FF3F04D06FF000424F
:103E700082EA2100704770B500F0C6F849922480AC
:103E800000207047F2E710F0004248BF4042B0FA0D
:103E900080F310FA03F10AD0C3F11D0303F5806328
:103EA0004FEA415002EB035202EBD12170474FF031
:103EB00000007047DFF848C170B51CEA111E1EBF34
:103EC0001CEA13159EEA0C0F95EA0C0F00F06F80A8
:103ED00081EA030423EA4C134EEAD47E21EA4C1112
:103EE00041F4801143F48013AE44A1FB024CA0FBCB
:103EF0000365AEF17F7E361955EB0C05A1FB034C33
:103F00004CF10003A0FB021C16EB0C06654153F1BB
:103F10000003094218BF46F0010613F4007F0BD1DD
:103F20004FEA03314FEA0530340341EA155140EAC4
:103F300016506FF003020AE04FEAC3214FEAC52092
:103F4000F40241EA555140EA56506FF0020202EB8A
:103F50002E4201EB025585EACE710AD05FEA440C8D
:103F600018BF24F0004450F1000041F1000120EAA4
:103F7000D47040F2FE7C624500D270BDA84214BFEE
:103F80004FF080444FF04044002E08BF0024BEF1A3
:103F9000806FA8BFA1F1C041BDE8704080F282806F
:103FA0004FF0000001F1C04101F0004170479EEA6E
:103FB0000C0F0CEA131518BF95EA0C0F06D04FF042
:103FC000000081EA030E0EF0004170BD00F01CF805
:103FD0008900013E00F007B800F009B84FEA430C31
:103FE0005FEA5C5C08D081EA030100F05BB84FEA4D
:103FF000410C5FEA5C5CF6D14FF00000014970476C
:104000000000FF070000F87F0EF1020E2EF0030EF5
:104010005EF8046B364205D4012A43EB030515F51F
:10402000001F12D8012841EB010C1CF5001F0CD811
:104030000ED14FEAD17C15F5001F0CEB4C0C0CF1A6
:10404000020C08BF4CEBD37C04E04FF0080C01E0FD
:104050004FEAD37C0CEB4C0526FA05F606F0070672
:10406000B6F1040C06D20EEB860CBDE870404CF0A5
:10407000010C6047DFE80CF0090B02024FF0004131
:104080004FF00000A1F5002170BD1946104601282F
:1040900051EB010418BFD4F5001484BF002001F0D7
:1040A000004170BD0808A0F500114FEA31017047CA
:1040B0004FF04070E1EE100A70470006101600063F
:1040C00010160000000000000000010203040607B3
:1040D000080900000000010203040000FC40000881
:1040E000000000207800000014020008744100085D
:1040F0007800002098090000300200080000DB056D
:10410000DB05DB05DB05DB054EF3DAFDAA001C024F
:1041100006FF0000000000005839343C96430B3C79
:104120000AD7233C96430B3CA69BC43B6F12833AB1
:10413000000000000000000000000000000000007F
:10414000000000000000000000000000000000006F
:10415000000000000000000000000000000000005F
:10416000000000000100000010000000000000003E
:044170000024F40033
:04000005080001D915
:00000001FF
