:020000040800F2
:10000000480C002029020008971D0008BF1B0008AB
:10001000951D000881050008BF27000800000000AA
:100020000000000000000000000000009B1D000810
:100030008305000800000000991D00082120000829
:10004000430200084302000843020008430200087C
:10005000430200084302000843020008430200086C
:10006000430200084302000843020008430200085C
:10007000430200084302000843020008430200084C
:10008000430200084302000843020008430200083C
:10009000430200084302000843020008430200082C
:1000A000430200084302000843020008430200081C
:1000B000430200084302000843020008430200080C
:1000C00043020008430200084302000843020008FC
:1000D00043020008430200084302000843020008EC
:1000E00043020008430200084302000843020008DC
:1000F000512200082D210008430200084302000895
:100100004302000843020008C1200008430200081F
:1001100043020008430200084302000843020008AB
:10012000430200084302000843020008430200089B
:100130004302000800000000000000004302000825
:10014000430200084302000843020008430200087B
:10015000430200084302000843020008430200086B
:10016000430200084302000843020008430200085B
:1001700043020008430200080000000000000000E5
:10018000430200084302000800F002F800F03CF8C7
:100190000AA090E8000C82448344AAF10107DA45E2
:1001A00001D100F031F8AFF2090EBAE80F0013F0F8
:1001B000010F18BFFB1A43F0010318472C4600003B
:1001C0004C460000103A24BF78C878C1FAD85207CC
:1001D00024BF30C830C144BF04680C6070470000C1
:1001E0000023002400250026103A28BF78C1FBD840
:1001F000520728BF30C148BF0B6070471FB504F0DD
:1002000020FA1FBD10B510BD00F00CF91146FFF724
:10021000F5FF03F065FA00F02AF903B4FFF7F2FFE7
:1002200003BC00F02DF90000094880470948004749
:10023000FEE7FEE7FEE7FEE7FEE7FEE7FEE7FEE796
:10024000FEE7FEE704480549054A064B70470000F3
:10025000A52000088901000848060020480C00205D
:10026000480800204808002053EA020C00F069808A
:100270002DE9F04B4FF00006002B1FBFB3FA83F5BA
:1002800003FA05F424FA05F65E4012BF1643B2FAEB
:1002900082F502FA05F4C5F120051EBF22FA05FC1D
:1002A00044EA0C04203556EA044C4FEA144418BFC3
:1002B000641C4FF000084FF00009904271EB030CF2
:1002C00039D3002919BFB1FA81F701FA07F6B0FA5C
:1002D00080F700FA07F6C7F120071EBF20FA07FCD7
:1002E00046EA0C062037B6FBF4FCA7EB0507103FE7
:1002F00007F01F0BCBF120060CFA0BFB2CFA06F6CD
:1003000044BFB3460026202FA4BF5E464FF0000B2B
:100310005BEA060C08BF4FF0010B19EB0B09ABFBB6
:10032000027C48EB0608C01B06FB02CC0BFB03CC8F
:1003300071EB0C01C1E70B46024641464846BDE859
:10034000F08B13B54FF000004FF00001AFF30080C9
:10035000BDE81C40704702F0FF0343EA032242EA73
:10036000024200F037B84FF0000200B51346944641
:100370009646203922BFA0E80C50A0E80C50B1F1FD
:100380002001BFF4F7AF090728BFA0E80C5048BF11
:100390000CC05DF804EB890028BF40F8042B08BFAF
:1003A000704748BF20F8022B11F0804F18BF00F8AB
:1003B000012B704770477047704710B500F02AF85E
:1003C000006810BD10B5044600F024F8046010BDAC
:1003D0004FF000020429C0F0128010F0030C3FF42B
:1003E000C4AFCCF1040CBCF1020F18BF00F8012B14
:1003F000A8BF20F8022BA1EB0C01FFF7B6BF5FEA04
:10040000C17C24BF00F8012B00F8012B48BF00F885
:10041000012B704700487047E405002000487047F2
:10042000E40500207546FFF7F9FFAE460500694672
:10043000534620F00700854618B020B5FFF702FFAD
:10044000BDE820404FF000064FF000074FF00008D5
:100450004FF0000B21F00701AC46ACE8C009ACE856
:10046000C009ACE8C009ACE8C0098D46704710B5BA
:100470000446AFF300802046BDE81040FFF7CDBE34
:1004800001491820ABBEFEE72600020070470000BD
:1004900010EE100A0649884202DD9FED060A7047F9
:1004A00010EE100A04498842F9DA9FED040A7047F9
:1004B00000C0DA4500C0DA4500004842000048426A
:1004C00010B525492DED048BB0EE408A18EE100AC8
:1004D000DFED228A884201DAB0EE688A204CB4F956
:1004E0000A0003F0F3FC78EE680A9FED1E1A41EC57
:1004F000190B80EE810A10EE100A04F031F841EC7D
:10050000100B9FED191B02F0E7F99FED191B51EC41
:10051000100B53EC112B03F02DFD9FED171B53EC2B
:10052000112B03F023FA53EC192B03F01FFA03F0FD
:10053000EBF900EE100AA07804F1600101EB8001F4
:10054000401CC0B281ED000AA070022801D1002039
:10055000A070BDEC048B10BD00000C4300000C43E8
:10056000000000200060D645000000000000F83FB9
:1005700000000000005094400000000000002040F7
:10058000FEE770470028034801D000F0C9BE00F024
:100590000CBF00009C05002070B5044600F028F94F
:1005A0000546B4F1FF3F02D004480078044400F04F
:1005B0001FF9401BA042FAD370BD000010010020BB
:1005C0002DE9F84F0022DFF81492DFF814A2DFF8CB
:1005D00014B24FF0010E03274FF00F080EFA02FC81
:1005E0000B6803EA0C0363457DD10C7904F0030426
:1005F000012C01D0022C14D18568540007FA04F6AE
:10060000B543CE6806FA04F42C438460446824EAB7
:100610000C0C0C79C4F30014944044EA0C0CC0F8A0
:1006200004C0D1F804C037EA0C0C0CD0C4684FEAFF
:10063000420C07FA0CF5AC438D6805FA0CFC4CEA49
:10064000040CC0F80CC091F804C00CF0030CBCF111
:10065000020F12D14FEAD20C00EB8C04256A4FEA4C
:10066000427C4FEADC6C08FA0CF6B5430E6906FAD8
:100670000CFC4CEA050CC4F820C004684FEA420C9C
:1006800007FA0CF5AC430D7905F0030505FA0CFCEF
:100690004CEA040CC0F800C0D1F804C01CF4403F80
:1006A0007DD0D9F800C04CF4804CC9F800C0D9F80E
:1006B00000C00CF4804CCDF800C022F0030C0CF10B
:1006C000804505F59835D5F808C89407240F08FA31
:1006D00004F62CEA0606A0F1804CBCF5003C64D080
:1006E000A0F1804C00E05AE0BCF5013C60D0A0F1E4
:1006F000804CBCF5023C5ED0A0F1804CBCF5033CC4
:100700005CD0A0F1804CBCF5043C5AD0A0F1804CE8
:10071000BCF5053C58D0A0F1804CBCF5063C56D049
:10072000A0F1804CBCF5073C54D04FF0080C0CFAFB
:1007300004FC4CEA060CC5F808C8DAF800C02CEA3C
:10074000030C4C6814F4803F01D04CEA030CCAF847
:1007500000C0254CD4F800C02CEA030C4D6815F4F9
:10076000003F01D04CEA030CC4F800C0DBF800C025
:100770002CEA030C4C6814F4801F01D04CEA030CE3
:10078000CBF800C0194CD4F800C02CEA030C4D681B
:1007900015F4001F01D04CEA030CC4F800C0521C31
:1007A000102AFFF41BAFBDE8F88F4FF0000CBEE736
:1007B0004FF0010CBBE74FF0020CB8E74FF0030C11
:1007C000B5E74FF0040CB2E74FF0050CAFE74FF080
:1007D000060CACE74FF0070CA9E7000044380240D4
:1007E000003C0140083C0140043C01400C3C0140FD
:1007F00001488068704700001001002002488168AD
:1008000002781144816070471001002010B50B4838
:10081000016841F400710160016841F48061016088
:10082000016841F480710160032000F085F8002028
:1008300000F006F800F026F8002010BD003C024051
:1008400070B504460D4D4FF47A712878B1FBF0F085
:100850000B490968B1FBF0F000F0B8FB08B10120CA
:1008600070BD102C07D200222146501E00F030F837
:100870006C60002070BD012070BD000010010020E0
:100880000C0100200A4808B5016841F4804101606C
:10089000006800F4804000900548001F016841F0A6
:1008A00080510160006800F08050009008BD000099
:1008B0004438024000280ADB00F01F01012202FA3E
:1008C00001F14009800000F1E020C0F800117047FC
:1008D00010B4184B1B68C3F30223C3F1070CBCF11F
:1008E000040F01D94FF0040C1C1D072C01D200236A
:1008F00000E0DB1E012404FA0CFCACF1010C0CEA54
:100900000101994004FA03F35B1E1A4011430028C9
:1009100006DB00F1E020090180F8001410BC7047EC
:1009200000F00F0000F1E020090180F8141D10BC58
:10093000704700000CED00E000F00700064A116867
:100940004FF6FF03194041EA002040F0FD7040F0EF
:1009500080601060704700000CED00E02DE9F0476A
:1009600004460D46002C13D0DFF85491D9F800004E
:10097000EFB200F00700A8420DD289F80070D9F854
:10098000000000F00700A84205D00120BDE8F08774
:100990000120BDE8F08720684A4E10F0020F14D005
:1009A00010F0040F03D0306840F4E050306020783D
:1009B00010F0080F03D0306840F4604030603068B9
:1009C000A16820F0F00008433060207810F0010F9B
:1009D0003ED060683C49012808D002280DD0032889
:1009E0000BD0096811F0020F28D00AE0096811F451
:1009F000003F06D10120BDE8F087096811F0007FB3
:100A000019D0316821F0030108433060FFF7F0FE90
:100A100080463068616800F00C00B0EB810F17D0A1
:100A200041F2883AFFF7E4FEA0EB0800504508D9F0
:100A30000320BDE8F0870120BDE8F0870120BDE874
:100A4000F0873068616800F00C00B0EB810FE9D1ED
:100A5000D9F8000000F00700A8420AD989F8007010
:100A6000D9F8000000F00700A84202D00120BDE83C
:100A7000F087207810F0040F05D03068E16820F48A
:100A8000E05008433060207810F0080F06D030683E
:100A9000216920F4604040EAC100306000F01CF899
:100AA00031680A4AC1F30311515CC8400849086023
:100AB00008480068FFF7C4FE0020BDE8F08700008A
:100AC000003C024008380240003802404647000817
:100AD0000C0100201401002010B51748006810F028
:100AE0000C01164816D0164B042912D0082911D132
:100AF000144C216801F03F02216811F4800F0AD0E4
:100B00002068C0F38810A0FB03010023FFF7ACFBB3
:100B100009E0184610BD21680023C1F38811A1FB2C
:100B20000001FFF7A1FB2168C1F30141491C490005
:100B3000B0FBF1F010BD0000083802400024F400C2
:100B400040787D01043802402DE9F84F0446002C1E
:100B500012D02078FB4E10F0010FA6F1040563D0EF
:100B6000301D016801F00C0104290CD0006800F070
:100B70000C00082803D010E00120BDE8F88F306891
:100B800010F4800F09D0286810F4003F4CD0606842
:100B9000002849D10120BDE8F88F6068B0F5803F9A
:100BA00014D0B0F5A02F16D0286820F4803028602B
:100BB000286820F480202860606810B3FFF718FED2
:100BC0000746286810F4003F0ED02DE0286840F456
:100BD00080302860F0E7286840F48020286028688A
:100BE00040F480302860E7E7FFF702FEC01B64286E
:100BF00002D90320BDE8F88F286810F4003FF3D035
:100C000012E0FFF7F5FD0746286810F4003F0BD00F
:100C1000FFF7EEFDC01B642802D90320BDE8F88F62
:100C2000286810F4003FF3D12078C74F10F0020F6E
:100C30004FF0000957D0C548016811F00C0F14D0CF
:100C4000006800F00C00082803D1306810F4800F11
:100C50000BD0E06880B301203860FFF7C9FD804603
:100C6000286810F0020F12D01EE0286810F0020F62
:100C700005D0E068012802D00120BDE8F88F28687F
:100C8000216920F0F80040EAC10028602BE0FFF75E
:100C9000AFFDA0EB0800022802D90320BDE8F88FC1
:100CA000286810F0020FF2D02868216920F0F800BF
:100CB00040EAC100286016E0FFE7C7F80090FFF7A0
:100CC00097FD8046286810F0020F0CD0FFF790FDCA
:100CD000A0EB0800022802D90320BDE8F88F28689D
:100CE00010F0020FF2D1207810F0080F35D098489C
:100CF000DFF860A26169C1B101210160FFF778FDF1
:100D00008046DAF8000010F0020F26D1FFF770FDE0
:100D1000A0EB0800022802D90320BDE8F88FDAF81A
:100D2000000010F0020FF1D017E0C0F80090FFF7BC
:100D30005FFD8046DAF8000010F0020F0DD0FFF7DB
:100D400057FDA0EB0800022802D90320BDE8F88F68
:100D5000DAF8000010F0020FF1D1207810F0040F43
:100D600071D04FF000087C48006810F0805F0AD115
:100D70007948016841F080510160006800F08050BE
:100D800000904FF00108DFF8D4B1DBF8000010F458
:100D9000807F1BD1DBF8000040F48070CBF80000AE
:100DA000FFF726FD8246DBF8000010F4807F0DD1AE
:100DB000FFF71EFDA0EB0A00022802D90320BDE8C0
:100DC000F88FDBF8000010F4807FF1D0A068DFF826
:100DD00090B1012818D005281DD0DBF8000020F0C4
:100DE0000100CBF80000DBF8000020F00400CBF895
:100DF0000000A06840B3FFF7FBFC8246DBF8000070
:100E000010F0020F14D03EE0DBF8000040F00100CB
:100E1000CBF80000EDE7DBF8000040F00400CBF871
:100E20000000DBF8000040F00100CBF80000E0E734
:100E3000FFF7DEFCA0EB0A0141F28830814204D9C1
:100E40000320BDE8F88F26E005E0DBF8000010F095
:100E5000020FEDD017E0FFF7CBFC8246DBF8000075
:100E600010F0020F0FD0FFF7C3FCA0EB0A0141F214
:100E70008830814202D90320BDE8F88FDBF80000FA
:100E800010F0020FEFD1B8F1010F04D13248016820
:100E900021F080510160A069F0B32C4909684FF03E
:100EA000FF3801F00C01082966D0022810D0C7F8DD
:100EB0006090FFF79DFC0446286810F0007F2BD05F
:100EC000FFF796FC001B022851D90320BDE8F88FDC
:100ED000C7F86090FFF78CFC8146286810F0007F0F
:100EE0000CD0FFF785FCA0EB0900022802D90320F3
:100EF000BDE8F88F286810F0007FF2D1216AE06920
:100F0000A26A0843616A08EB5202890141EA024180
:100F1000084394F82C1000E055E040EA016030608E
:100F200001203866FFF764FC0446286810F0007F53
:100F300049D1FFF75DFC001B022813D90320BDE84F
:100F4000F88F000004380240000047420838024091
:100F5000800E474274380240403802400070004022
:100F600070380240286810F0007FE2D02BE028683B
:100F700010F0007FA4D126E0012822D03068E26979
:100F800000F4800191421AD1226A00F03F0191429F
:100F900015D147F6C071626A0140B1EB821F0ED1D4
:100FA000A26A00F4403108EB5202B1EB024F06D1C5
:100FB00094F82C1000F07060B0EB016F03D00120AA
:100FC000BDE70120BBE70020B9E70000401EB0F1FB
:100FD000807F01D3012070474FF0E0214861044A2F
:100FE000F020107000208861072008610020704701
:100FF00023ED00E07047704790F83C20012A2CD088
:10100000012280F83C20CA680023D1F808C022F4ED
:10101000407242EA0C02D1F804C022F4806242EA33
:101020000C02D1F800C022F4006242EA0C02D1F8AE
:1010300010C022F4805242EA0C02D1F814C022F40B
:10104000005242EA0C02C96922F48042114302684C
:10105000516480F83C30002070470220704730B463
:1010600090F83C20012A44D0012480F83C40022220
:1010700080F83D200268D2F804C093682CF0700C10
:101080000D6845EA0C0CC2F804C00268A2F1804C5D
:10109000BCF5803C20D0B2F1804F1DD0A2F1804C35
:1010A000BCF5806C18D0A2F1804CBCF5006C13D05C
:1010B000A2F1804CBCF5406C0ED0A2F1804CBCF586
:1010C000823C09D0A2F1804CBCF5A03C04D0A2F136
:1010D000804CBCF5C05C04D123F0800349681943FF
:1010E000916080F83D40002180F83C1030BC002029
:1010F000704730BC0220704710B50446002909D063
:1011000004290AD008290BD094F8450001280AD0F8
:10111000012010BD94F84200F8E794F84300F5E789
:1011200094F84400F2E70220D9B3042947D00829F3
:1011300048D084F845000422206801F02AF920688C
:10114000416C41F4004141642068A0F18041B1F557
:10115000803127D0B0F1804F24D0A0F18041B1F58B
:1011600080611FD0A0F18041B1F500611AD0A0F1DB
:101170008041B1F5406115D0A0F18041B1F58231D7
:1011800010D0A0F18041B1F5A0310BD0A0F1804189
:10119000B1F5C05106D0016841F0010101600020A5
:1011A00010BD09E0816801F007010629F7D0016848
:1011B00041F001010160F2E784F84200BBE784F8E6
:1011C0004300B8E784F84400B5E710B50446002CA6
:1011D00003D094F83D0010B107E0012010BD0020BD
:1011E00084F83C00204600F01FF8022084F83D00FF
:1011F000211D206801F058F8012084F8460084F889
:101200003E0084F83F0084F8400084F8410084F8F0
:10121000420084F8430084F8440084F8450084F8D0
:101220003D00002010BD000010B586B0044614211A
:101230006846FFF798F8344A21683448914225D12E
:10124000016841F008010160006800F008000590A5
:101250002E481038016841F0010101600068012149
:1012600000F001000590072000900220CDE9010167
:101270000321CDE9031069462548FFF7A1F90022B3
:1012800011463220FFF724FB322015E0214A91421B
:1012900016D11E48001D016841F00201016000687E
:1012A000002200F00200059011462C20FFF710FBF1
:1012B0002C20FFF7FFFA20E0FFF7FCFA06B010BD84
:1012C000154A91420ED1016841F080010160006829
:1012D000002200F08000059011462C20FFF7F8FA5C
:1012E0002C20E9E70D4A9142E8D1016841F4807170
:1012F0000160006800F480700590002211462D20E6
:10130000FFF7E6FA2D20D7E7000C004040380240F6
:101310000000024000040140001C0040002000408A
:1013200090F83D10012901D001207047022180F87A
:101330003D100168CA6842F00102CA600068A0F16D
:101340008041B1F5803126D0B0F1804F23D0A0F19B
:101350008041B1F580611ED0A0F18041B1F50061FE
:1013600019D0A0F18041B1F5406114D0A0F18041C5
:10137000B1F582310FD0A0F18041B1F5A0310AD092
:10138000A0F18041B1F5C05105D0016841F00101E3
:10139000016000207047816801F007010629F8D03C
:1013A000016841F001010160F3E70168CA6822F0B9
:1013B0000102CA6001680A6A41F211131A4207D198
:1013C0000A6A9B101A4203D10A6822F001020A60DD
:1013D000012180F83D100020704770B504460025BB
:1013E00094F83C00012818D0012684F83C600220C3
:1013F00084F83D002068826822F0770222F47F4260
:1014000082600868502839D00EDC202854D006DCD1
:10141000002851D0102811D14EE0022070BD302894
:101420004AD040280AD13DE0602831D070280DD044
:10143000B0F5805F03D0B0F5005F13D0012584F8CC
:101440003D60002084F83C00284670BDCB684A68A7
:101450008968206800F0ACFF2068816841F077015E
:101460008160ECE7CB684A688968206800F0A0FFDB
:101470002068816841F480418160E0E7CA6849687A
:10148000206801F0D2F85021206800F09CFFD6E7D8
:10149000CA684968206801F022F96021206800F0DC
:1014A00092FFCCE7CA684968206801F0BEF8402185
:1014B000206800F088FFC2E722680146104600F06D
:1014C00082FFBCE7704770B505460C46002695F8CC
:1014D0003C0001280FD0012085F83C006AB1042AA5
:1014E0001CD0082A2CD00C2A3BD00126002085F8DD
:1014F0003C00304670BD022070BDE3686268216820
:10150000286801F0A5F82868816921F00C01816143
:1015100028688169A26811438161E7E7E36862682E
:101520002168286801F0EDF82868816921F440619C
:10153000816128688169A26841EA02218161D5E759
:10154000E36862682168286801F0FBF82868C169CF
:1015500021F00C01C1612868C169A2681143C16111
:10156000C4E7E36862682168286801F008F9286820
:10157000C16921F44061C1612868C169A26841EA7A
:101580000221C161B2E710B50446002C03D094F8E3
:101590003D0010B107E0012010BD002084F83C00A0
:1015A000204600F01EF8022084F83D00211D20682E
:1015B00000F07AFE012084F8460084F83E0084F8AA
:1015C0003F0084F8400084F8410084F8420084F829
:1015D000430084F8440084F8450084F83D0000206E
:1015E00010BD704730B50446002500290FD00429EE
:1015F00010D0082911D094F8410089B1042912D0E3
:10160000082913D094F84520012814D111E094F84A
:101610003E00F2E794F83F00EFE794F84000ECE773
:1016200094F84220F0E794F84320EDE794F8442042
:10163000EAE7012A01D0012030BD0220B1B104291E
:1016400017D0082918D084F84100C1B1042919D055
:1016500008291AD084F84500D1B104291ED00829E0
:1016600022D00C2926D0012555B358E084F83E003D
:10167000EBE784F83F00E8E784F84000E5E784F80A
:101680004200E9E784F84300E6E784F84400E3E732
:101690002068C26842F00202C260E5E72068C268C2
:1016A00042F00402C260DFE72068C26842F008022C
:1016B000C260D9E72068C26842F01002C260D3E776
:1016C0000122206800F056FE2068A0F18041B1F5AB
:1016D000803126D0B0F1804F23D0A0F18041B1F508
:1016E00080611ED0A0F18041B1F5006119D0A0F158
:1016F0008041B1F5406114D0A0F18041B1F5823153
:101700000FD0A0F18041B1F5A0310AD0A0F1804105
:10171000B1F5C05105D0016841F0010101602846D2
:1017200030BD816801F007010629F8D0016841F059
:1017300001010160F3E770B50446206801694FF0CC
:10174000000511F0020F17D0C16811F0020F13D07D
:10175000E91E0161012020772068806910F0030FE5
:1017600003D02046FFF7AEFE05E0204600F0F0F87B
:10177000204600F089F925772068016911F0040FEF
:1017800018D0C16811F0040F14D06FF0040101618A
:10179000022020772068806910F4407F03D0204623
:1017A000FFF790FE05E0204600F0D2F8204600F05A
:1017B0006BF925772068016911F0080F18D0C1680E
:1017C00011F0080F14D06FF0080101610420207798
:1017D0002068C06910F0030F03D02046FFF772FEA7
:1017E00005E0204600F0B4F8204600F04DF92577DA
:1017F0002068016911F0100F18D0C16811F0100FA6
:1018000014D06FF010010161082020772068C069B2
:1018100010F4407F03D02046FFF754FE05E0204639
:1018200000F096F8204600F02FF92577206801692E
:1018300011F0010F09D0C16811F0010F05D06FF050
:1018400001010161204600F08FF92068016911F063
:10185000800F09D0C16811F0800F05D06FF08001B2
:1018600001612046FFF7C6FB2068016911F0400FB7
:1018700009D0C16811F0400F05D06FF0400101613F
:10188000204600F09BF92068016911F0200F0BD071
:10189000C16811F0200F07D06FF0200101612046D0
:1018A000BDE87040FFF7A7BB70BD000070B586B003
:1018B000044614216846FEF756FD204920688842F8
:1018C0003AD11F48016841F001010160016801F04F
:1018D00001010591016841F002010160016801F018
:1018E00002010591016841F00401016000680225D0
:1018F00000F004000590802003240126CDE90005B6
:10190000CDE90264694604940E48FEF759FEA0032F
:10191000CDE90005CDE90264694604940A48FEF762
:101920004FFE4FF4E070CDE90005CDE90264694651
:1019300004940648FEF744FE06B070BD0004014062
:10194000303802400000024000040240000802401B
:10195000704770B504460D46002694F83C000128F7
:101960000FD0012084F83C006AB1042A1FD0082A55
:1019700032D00C2A44D00126002084F83C003046A6
:1019800070BD022070BD2946206800F025FD20684A
:10199000816941F0080181612068816921F00401B9
:1019A0008161206881692A6911438161E4E72946E0
:1019B000206800F049FD2068816941F4006181617F
:1019C0002068816921F480618161206881692A69C8
:1019D00041EA02218161CFE72946206800F070FDCD
:1019E0002068C16941F00801C1612068C16921F026
:1019F0000401C1612068C1692A691143C161BBE763
:101A00002946206800F098FD2068C16941F4006112
:101A1000C1612068C16921F48061C1612068C16928
:101A20002A6941EA0221C161A6E710B50446002CEB
:101A300003D094F83D0010B107E0012010BD002054
:101A400084F83C00204600F01EF8022084F83D0097
:101A5000211D206800F028FC012084F8460084F84D
:101A60003E0084F83F0084F8400084F8410084F888
:101A7000420084F8430084F8440084F8450084F868
:101A80003D00002010BD70477047000010B50446AF
:101A9000002909D004290AD008290BD094F8410064
:101AA00001280AD0012010BD94F83E00F8E794F810
:101AB0003F00F5E794F84000F2E70220D9B304298B
:101AC00047D0082948D084F841000122206800F05E
:101AD00051FC234A20682349904201D0884203D117
:101AE000436C43F4004343642068904224D0B0F137
:101AF000804F21D0A0F18042B2F580621CD0A0F1CD
:101B00008042B2F5006217D0A0F18042B2F5406287
:101B100012D0884210D0A0F18041B1F5A0310BD095
:101B2000A0F18041B1F5C05106D0016841F001013A
:101B30000160002010BD09E0816801F0070106295D
:101B4000F7D0016841F001010160F2E784F83E003E
:101B5000BBE784F83F00B8E784F84000B5E7000031
:101B60000000014000040140704770B5044694F83D
:101B70003C00012810D0012584F83C50022084F854
:101B80003D00204600F004FD002138B184F83D50AE
:101B900084F83C10012070BD022070BD2068C2682E
:101BA00022F04002C2602068C26822F48042C26013
:101BB00084F83D5084F83C10002070BD7047FEE76B
:101BC00030B50E4A002302F16805D37000EE101AFA
:101BD000DBB205EB8304B8EE400AD4ED000A20EE38
:101BE000800ABCEEC00A10EE104AC454D3785B1CC5
:101BF000DBB2D370282BE9D330BD000000000020F9
:101C0000114808B5016841F080010160016801F0E8
:101C100080010091016841F001010160016801F05B
:101C200001010091016841F002010160016801F0C9
:101C300002010091016841F004010160006800F0B8
:101C40000400009008BD00003038024030B58BB071
:101C5000142104A8FEF787FB00241E480A94099467
:101C60000094019402941A4901250394C0E90015D7
:101C7000611EC0E9024104618461FFF7A6FA1548BC
:101C8000FFF781FC042004905020CDE9050404A94D
:101C900010480894FFF769FF099409A90D480A94B0
:101CA000FFF7DDF90520CDE90240CDE9004500222E
:101CB00069460848FFF707FC042269460548FFF714
:101CC00002FC082269460348FFF7FDFB0BB030BD5C
:101CD000000C0040C404002030B595B000240F94DF
:101CE00010941194129413941C2168461494FEF7D6
:101CF0003AFB202107A8FEF736FB25482349042597
:101D0000C0E900156321C0E90241046144618461B6
:101D1000FFF75BFAA8020F900FA91D48FFF75DFBC4
:101D20001B48FFF782FE139413A919481494FFF778
:101D300096F960200090092001900220029008206E
:101D4000CDE903058001CDE9054000226946104830
:101D5000FFF7FFFD042269460D48FFF7FAFD082250
:101D600069460B48FFF7F5FD079408940994E802CB
:101D70000A94CDE90B4040000E9007A90448FFF7F4
:101D80003BF90348FFF792FD15B030BD0004014058
:101D90000C050020FEE77047704770470149087046
:101DA000704700000000002070B505462DED048B43
:101DB00072B6884C606B2064A06B6064E06BA064BA
:101DC00062B6002172B60846834A00BF52F820303E
:101DD000401C19442328F9DB62B600EE101AB8EE55
:101DE000400A10EE100A02F0BBFB9FED7C1B53EC87
:101DF000112B02F0BFF89FED7B1B53EC112B01F070
:101E00000DFF41EC100B53EC102B9FED780B51ECB8
:101E1000100B01F003FF9FED771B53EC112B01F02A
:101E2000FDFE01F071FD9FED758A00EE105AE06431
:101E3000F8EE400A88EE200AFEF72AFB84ED090A34
:101E4000D4ED130A88EE200AFEF722FB84ED0A0A7D
:101E50006149A0698C3101EB8002401C82ED000ACF
:101E6000C21700EB926222F03F02801A9FED640AD3
:101E7000A061002001EB8002401CD2ED000A402846
:101E800030EE800AF6DBDFED5F0A20EE200A84EDFB
:101E9000150AC8EE000AC4ED140AFEF711FB84ED22
:101EA0000B0AD4ED130A20EE601A61EE200A80EED0
:101EB000881A84ED0C1A72B66069A02805D2F6EE75
:101EC000000A20EE200A84ED0B0A94ED090A94ED35
:101ED000158A10EE100AB4EEC80AF1EE10FA14D208
:101EE00002F03EFB94ED0B0A41EC190B38EE400A70
:101EF00010EE100A02F034FB41EC100BB0EE491A60
:101F0000F0EE691A00F074FC13E002F029FB94ED86
:101F10000B0A41EC190B38EE000A10EE100A02F021
:101F20001FFB41EC100BB0EE491AF0EE691A00F0FD
:101F300099FC51EC100B01F0E7FC00EE100AFEF7E3
:101F4000A7FABCEEC00A40F2145110EE100A80B29B
:101F50006061884201D92C492162A0F23B2140F204
:101F6000D922914202D8284928312162A0F25F117A
:101F7000DB2902D8244978312162A0F20F114F29C0
:101F800002D82149A0312162A0F1D3013B2901D817
:101F90001E4921621D49A0F1B50228311D2A00D831
:101FA0002162A0F1A102132A00D82162A0F18D02C2
:101FB000132A00D821621549A0F179025031132A61
:101FC00000D82162782800D8216262B6BDEC048B6B
:101FD00070BD000000000020A801002048AFBC9A9E
:101FE000F2D77A3E0000000000804140000000006F
:101FF00000004E400000000000001C40DB622E4943
:10200000000000000000803C340300204C0400204D
:10201000024941F65830C862704700000020004075
:10202000FEF7ECBB30B593B030216846FEF79BF964
:1020300014210CA8FEF797F918480024016841F014
:1020400080510160006800F08050119014480168D0
:1020500041F4804101600068022500F48040119045
:1020600001200090000401908001CDE90650192064
:102070000890A020099004200A900B906846FEF773
:1020800063FD0F20CDE90C058020CDE90E04002171
:102090000CA81094FEF762FC13B030BD403802402B
:1020A000007000400548016841F470010160034977
:1020B0004FF00060803908607047000088ED00E054
:1020C000144830B40178491C017013480068006955
:1020D00080071BD511490A68114842630A1D12681E
:1020E00082630E4A08321268C26309680D4B0269A6
:1020F00043F822102323521C92FBF3F403FB142217
:10210000C0E90312084A914200D9C26030BC0248BB
:10211000FFF711BB0A010020C4040020340C00406A
:1021200000000020A8010020041701002DE9F04163
:102130004248434A4169D162C278424940F255550A
:10214000142A01D08AB113E000233C4AC3700478FA
:1021500012792CB1052A01D0521C05E0037104E06C
:102160000AB1521E00E0052202710A682A430A6081
:10217000344B324A1C3390F804C01C1F5678271F7A
:10218000126ABCF1060F4DD2DFE80CF0030F1C29D8
:10219000374190F803C0CCF1130E12F80EE0C3F8EB
:1021A00000E0CCF12703D25C09E090F803C002EB19
:1021B0000C0E9EF814E0C3F800E012F80C20226028
:1021C0003E6016E090F803C0CCF1270E12F80EE046
:1021D000C3F800E02660CCF11303D25C08E090F86D
:1021E00003C012F80CE0C3F800E026606244127DE0
:1021F0003A60BCF1000F12D014E01E60C378C3F146
:102200001306965D2660C3F12704125D05E01E608B
:10221000C378D618367D2660D25C3A6013B90A6856
:102220002A430A60C178491CC1700748FFF783FA46
:10223000BDE8F0410548FFF77EBA0000000000202D
:1022400000200040200401400C0500209C050020D7
:10225000114810B50189DFED110A00EE101A0021B6
:10226000B8EE400A20EE200AF1EE0C0A80EE201AA9
:10227000B0EE000AF0EE080A21EE000A80EE201A05
:1022800080ED071A01810648FFF755FABDE81040B6
:102290000448FFF750BA0000000000200000704220
:1022A0000C05002054050020F0B402682C4B2D4C86
:1022B0002D4D2E4EDFF8B8C098420AD0B0F1804FB5
:1022C00007D0A04205D0A84203D0B04201D060455B
:1022D00003D122F070024F683A43984228D0B0F1FF
:1022E000804F25D0A04223D0A84221D0B0421FD099
:1022F00060451DD0A0F18044B4F5A03418D0A0F101
:102300008044B4F5A23413D0A0F18044B4F5A434D1
:102310000ED0A0F18044B4F5C05409D0A0F180449F
:10232000B4F5E05404D0A0F18044B4F5005403D1D6
:1023300022F44072CC6822434C6922F0800222438E
:1023400002608A68C2620A688262984201D060456F
:1023500001D10969016301214161F0BC70470000AE
:10236000000001400004004000080040000C004054
:102370000004014001F01F0101238B40D0F820C070
:102380002CEA03030362036A02FA01F119430162B2
:10239000704701F01F0104238B40D0F820C02CEAC5
:1023A00003030362036A02FA01F1194301627047F1
:1023B000D0F808C02CF47F4C42EA0322114341EAD2
:1023C0000C0181607047826822F07002114341F075
:1023D000070181607047000070B4026A22F00102B8
:1023E0000262036A4268D0F818C02CF0700C2CF01E
:1023F000030C0C6844EA0C0C23F002038C682343A2
:102400000F4C104DA04201D0A84205D123F0080383
:10241000CE68334323F00403A04201D0A84207D181
:1024200022F4807222F400724C6922438C692243A8
:102430004260C0F818C049684163036270BC7047CD
:10244000000001400004014070B4026A22F0100252
:102450000262036A4268D0F818C02CF4E04C2CF4F5
:10246000407C0C684CEA042C23F020038C6843EA7F
:102470000413114C114DA04201D0A84206D123F003
:102480008003CE6843EA061323F04003A04201D044
:10249000A84209D122F4806222F400624C6942EA27
:1024A00084028C6942EA84024260C0F818C049681C
:1024B0008163036270BC704700000140000401406A
:1024C00070B4026A22F480720262036A4268D0F831
:1024D0001CC02CF0700C2CF0030C0C6844EA0C0CA3
:1024E00023F400738C6843EA0423114C114DA0427D
:1024F00001D0A84206D123F40063CE6843EA062344
:1025000023F48063A04201D0A84209D122F4805272
:1025100022F400524C6942EA04128C6942EA041225
:102520004260C0F81CC04968C163036270BC704758
:10253000000001400004014010B4026A22F48052FD
:102540000262D0F820C04268C36923F4E04323F458
:1025500040730C6843EA04232CF4005C8C684CEA5A
:10256000043CA0F18044B4F5803404D0A0F1804450
:10257000B4F5823404D122F480424C6942EA8412D8
:102580004260C36149680164C0F820C010BC704754
:1025900010B500240268936823F07003D1F804C0DA
:1025A0004CEA030323F00703D1F800C04CEA03030D
:1025B00093604A6812F00F0F34D11211082A31D2F9
:1025C000DFE802F0313131310B242A040B698A68CB
:1025D000C9680068FFF7ECFE25E00A68052A13D0F9
:1025E0000268136AD2F820C02CF0010CC2F820C097
:1025F0000268D2F818C02CF0F00C09694CEA0111FD
:102600009161006803620EE0012010BD0A698968CB
:10261000006800F00AF806E00A698968006800F0BE
:102620005EF800E00124204610BD036AD0F820C007
:102630002CF0010CC0F820C0D0F818C02CF0F00C21
:102640004CEA021223F00A031943826101627047C7
:1026500030B4D0F820C02CF0010CC0F820C0D0F865
:1026600018C0046AA0F18045B5F5803532D0B0F1CC
:10267000804F2FD0A0F18045B5F580652AD0A0F11C
:102680008045B5F5006525D0A0F18045B5F54065DC
:1026900020D0A0F18045B5F582351BD0A0F1804552
:1026A000B5F5A03516D0A0F18045B5F5C05511D0CF
:1026B0004CF0010222F0F0024FF0F00C0CEA031390
:1026C0001A4324F00A0301F00A01194382610162EE
:1026D00030BC70472CF0030C4CEA0202EAE7036AB4
:1026E00023F010030362D0F818C0036A2CF4704C76
:1026F0004CEA023223F0A00343EA01118261016235
:10270000704710B4D0F820C02CF0100CC0F820C0D6
:102710008469D0F820C024F4407444EA022222F4F0
:1027200070424FF4704404EA03331A432CF0A003C0
:102730004FF0A00C0CEA011119438261016210BC38
:10274000704710B4D0F820C02CF4807CC0F820C0B2
:10275000C469D0F820C024F00304224322F0F00220
:10276000F02404EA03131A432CF420634FF4206C82
:102770000CEA01211943C261016210BC704710B418
:10278000D0F820C02CF4805CC0F820C0C469D0F818
:1027900020C024F4407444EA022222F470424FF430
:1027A000704404EA03331A432CF420434FF4204CC2
:1027B0000CEA01311943C261016210BC7047FEE7A7
:1027C00003B401984100009850EAC12018BF0420CA
:1027D0004A0D18BF40F0010040F2FF72B2EB515FAA
:1027E00008BF40F00200012808BF052002B0704772
:1027F00000B52DED048BB0EE418AF0EE618AB0EEAB
:10280000409AF0EE609A83B053EC182B51EC190B00
:1028100001F08DF900F07040B0F1005F1AD018EEB1
:10282000101A18EE900A8DED008B002918BF0121B7
:10283000084320F00040C0F17F6000F1E040C00F8D
:1028400001BFB0EE480AF0EE680A03B0BDEC048B9D
:1028500008BF00BDB0EE490A03B0F0EE690ABDEC56
:10286000048B00BD00B52DED048BB0EE418AF0EE77
:10287000618AB0EE409AF0EE609A83B053EC182B68
:1028800051EC190B01F053F900F07040B0F1004F1A
:102890001AD018EE101A18EE900A8DED008B002950
:1028A00018BF0121084320F00040C0F17F6000F113
:1028B000E040C00F01BFB0EE480AF0EE680A03B076
:1028C000BDEC048B08BF00BDB0EE490A03B0F0EECA
:1028D000690ABDEC048B00BD2DE9F04D2DED040B14
:1028E0002DED0E8B96B0DDE92550279CDDF890A0EC
:1028F00025F0004624F00048BAF1000F14BF012172
:10290000002101EB4502FC4953184A1093422AD397
:10291000002814BF0123002303EB44030B44F749B1
:102920008B4220D358EA00019FEDF59B76D0DFF86B
:10293000D8B35D4503D1BAF1000F05D188E0BAF1F3
:10294000000F08BF002100D0012101EB450111F566
:10295000001F08D8002814BF0121002101EB440109
:1029600011F5001F0BD99DED261B9DED240B16B014
:10297000BDEC0E8B04B0BDE8F04D00F069BE002741
:10298000002DBCBFE149884521DAE1498845A8BF4F
:1029900002271CDAC3451ADCDE4901EB2851142951
:1029A00008DDC1F1340220FA02F101FA02F282429A
:1029B0000DD108E058B9C1F1140228FA02F101FA68
:1029C00002F2424503D101F00101C1F1020756EACA
:1029D0000A0124D1002C22DA002D18BF022F01D0C9
:1029E000012F0AD00220FDF7EDFC16B0BDEC0E8BD6
:1029F00004B0BDE8F04D00F013BE0220FDF7E2FC8C
:102A000000F00EFE51EC100B00F071FF41EC100BCA
:102A100016B0BDEC0E8B04B0BDE8F08D18E09FED54
:102A2000BEAB9FEDBF8B002871D1B848804522D145
:102A300005F1804010F5801008BFBAF1000F07D0F3
:102A4000B3450ADC002CA8BF9DED260BE0DA0DE0B3
:102A5000B0EE490AF0EE690ADAE7002C06DA9DEDDD
:102A6000260B51EC100B00F042FF6FE0AE487844AB
:102A700090ED000BCCE7D8454DD1002C48DA2EB1B3
:102A800086423AD1BAF1000F42D126E0BAF1000FE6
:102A900013D00220FDF796FC00F0F6FD8DED020B41
:102AA0009DED240B8DED000B10EE900A039961F360
:102AB0001E0003909DED020BAAE78DED02AB9DED8C
:102AC000240B1AEE901A10EE900A8DED000B61F3B4
:102AD0001E0003909DED020B9AE78DED028B9DED9C
:102AE000240B18EE901A10EE900A8DED000B61F396
:102AF0001E0003909DED020B8AE709DA9DED240B81
:102B000051EC190B53EC102B01F088F81EE020E07B
:102B10009DED240B7CE786421BDAB4F1804F0DD08B
:102B2000A4F10050B0F1FF5013D1002D11DB9DED49
:102B3000240B51EC100B00F0A3FE07E09DED240BDD
:102B400053EC102B51EC100B00F0C2BC41EC100BFD
:102B50005EE79DED240B51EC100B00F0B5FDBAF1D2
:102B6000000FCDE90E0142D19FED710B46B3A6F1E6
:102B7000E040B0F17F600CD05E4538D1002D00DA26
:102B8000A7B3022F0CBF01204FF0FF3001F09EF9D8
:102B9000DCE7002D01DD002C0DDA002D01DD002C1D
:102BA0001FDB002D16DA002C14DB012F08BF9FED70
:102BB000620B3FF42DAFB0EE4A0AF0EE6A0A27E747
:102BC000022F18BF002D0CD0012F0AD1002DFFF6C7
:102BD0001FAF06E0002DB8BF002C08DA012F3FF42C
:102BE00017AFB0EE480AF0EE680A11E71BE00120CB
:102BF00000EBE57050EA070115D0791EB0EE498A66
:102C0000F0EE698A084308BF9FED4D8B4E480025C2
:102C1000804570DD4D494E48884514DDB0420DDBDE
:102C2000002C19DB2FE00120FDF7CCFB16B0BDEC2A
:102C30000E8B04B0BDE8F04D00F016BDB34502DCCC
:102C4000002C09DC1FE0864202DA002C1BDA03E0CC
:102C50005E452BDD002C16DD0220FDF7B3FB00F0F6
:102C600013FD8DED020B53EC1A2B51EC180B01F0F8
:102C700081F9CDE900010399019861F31E000390E9
:102C80009DED020BC4E60220FDF79CFB00F00CFD5D
:102C900010EE901A18EE900A8DED020B8DED008B60
:102CA00061F31E0003909DED020BB1E69DED0E0B4E
:102CB00053EC192B51EC100B01F068FB9FED260B28
:102CC000CDE9080153EC102B9DED080B51EC100BD6
:102CD00001F050F99FED221B53EC112B01F07EFA0D
:102CE0009DED081B53EC112B01F044F99FED1E1BC9
:102CF00053EC112B3CE08CE0FFFF1F00FFFF0F00A7
:102D0000000000000000F03F0000F03F0000F07FF6
:102D10000000404301FCFFFF000000000000F07FC6
:102D200000000000000000006E1D00000000000018
:102D30000000000000000080000000000000F0FF24
:102D4000000000000000F0BF0000E0410000F04380
:102D5000FFFFEF3F00000000000000000000D03F38
:102D6000555555555555D53F000000000000E03F32
:102D700001F034FA9DED080B41EC1A0B53EC102BCB
:102D800051EC100B01F0F6F853EC1A2B01F0F2F8AD
:102D900041EC1A0B9FEDFE0B53EC102B9DED080B35
:102DA00051EC100B01F0E6F841EC1B0B9FEDFA0B18
:102DB00051EC1A0B53EC102B01F0DCF841EC1A0B20
:102DC0009FEDF70B53EC102B9DED080B51EC100B06
:102DD00001F0D0F853EC1A2B01F0D8FA41EC1A0BA1
:102DE00051EC1B0B53EC1A2B00F0C0FD0690CDE903
:102DF00006519DED060B53EC1B2B51EC100B01F013
:102E0000C5FA53EC1A2B01F0E9F941EC100B00F074
:102E1000A1B90020B6F5801F0EDA9FEDE30B53EC4D
:102E2000102B9DED0E0B51EC100B01F0A3F8CDE92A
:102E30000E016FF034000E4600EB2650A0F2FF3773
:102E4000C6F31300DA4940F07F6646F040568842E8
:102E5000D8BF002408DDD7498142C8BF012403DC64
:102E60000024A6F580167F1CD348784400EBC400EC
:102E70000F9690ED00CB9DED0E0B53EC1C2B51ECFF
:102E8000100B01F083FA9DED0E0B41EC1B0B53EC84
:102E90001C2B51EC100B00F069FD41EC100B51ECB8
:102EA000190B53EC102B00F0B9FE41EC1D0B51EC4B
:102EB0001B0B53EC1D2B01F05DF841EC1A0BBF48C6
:102EC0008DED10AB7844109590ED000B4FF0005055
:102ED00040EA660000EB84408DED080B00F5002011
:102EE00009909DED080B53EC1C2B51EC100B01F0DD
:102EF0004DFA9DED0E1B53EC112B01F06FF941ECD7
:102F0000100B53EC102B9DED100B51EC100B01F03E
:102F100031F89DED080B41EC1C0B53EC102B9DED93
:102F2000100B51EC100B01F025F853EC1B2B01F0AA
:102F300055F953EC1C2B01F029FA53EC1D2B01F031
:102F400019F841EC1C0B53EC1A2B51EC1A0B01F045
:102F500011F841EC1B0B9A480621B0EE4B0AF0EE3B
:102F60006B0A784400F0E0FAB0EE401AF0EE601A16
:102F7000B0EE41DAF0EE61DA53EC1B2B51EC1B0B97
:102F800000F0F8FF53EC1D2B00F0F4FF9DED100B4B
:102F900041EC1B0B53EC1A2B51EC100B00F0E6FC30
:102FA00053EC1C2B00F0E6FF53EC1B2B00F0DEFC77
:102FB0009DED100B41EC1B0B53EC102B51EC100B47
:102FC00000F0D8FF41EC1D0B9FED7FEB53EC1E2B67
:102FD00000F0CCFC53EC1B2B00F0C8FC0890CDE9B2
:102FE00008519DED080B53EC1E2B51EC100B01F01A
:102FF000CDF953EC1D2B01F0C9F953EC1B2B01F05B
:10300000EDF89DED080B41EC1D0B53EC102B9DEDE5
:10301000100B51EC100B00F0ADFF41EC1B0B53EC0F
:103020001A2B51EC1D0B00F0A5FF9DED080B41EC98
:103030001A0B53EC102B51EC1C0B00F09BFF53ECC4
:103040001A2B00F093FC41EC1A0B51EC1B0B53ECC8
:103050001A2B00F08BFC0C90CDE90C519DED0C0B64
:1030600053EC1B2B51EC100B01F090F953EC1A2B85
:1030700001F0B4F841EC1B0B9FED550B53EC102BFA
:103080009DED0C0B51EC100B00F074FF41EC1A0B92
:103090009FED510B51EC1B0B53EC102B00F06AFF12
:1030A00041EC1B0B9FED4E0B53EC102B9DED0C0BCD
:1030B00051EC100B00F05EFF53EC1B2B00F056FCA4
:1030C00041EC100B4848784400EBC40090ED001B25
:1030D00051EC100B53EC112B00F048FC41EC1B0B96
:1030E000384600F0F3FECDE9080153EC1B2B51EC00
:1030F0001A0B00F03BFC41EC100B3C48784400EB11
:10310000C40090ED00CB51EC100B53EC1C2B00F0E5
:103110002DFC9DED081B53EC112B00F027FC0690B5
:10312000CDE906519DED080B53EC102B9DED060BE0
:1031300051EC100B01F02AF953EC1C2B01F026F98D
:1031400053EC1A2B01F022F953EC1B2B01F046F83B
:1031500041EC100B9DED261B53EC102B8DED001B4D
:1031600000959DED260B51EC100B00F003FF9DED3B
:10317000000B41EC1A0B53EC102B9DED260B51EC80
:10318000100B01F003F99DED061B53EC112B2FE002
:10319000000000604715F73FFE822B654715F73F9B
:1031A00044DF5DF80BAE543E0000000000004043D9
:1031B0008E9803007AB60B00EA1800001819000078
:1031C000221800000000000000000000000008407D
:1031D000000000E009C7EE3FFD033ADC09C7EE3FFF
:1031E000F5015B14E02F3EBEAE160000681600002D
:1031F00000F0C0FE53EC1A2B00F0B8FB9DED060B5F
:1032000041EC1A0B53EC102B9DED000B51EC100B05
:1032100000F0B0FECDE90C019DED0C0B51EC1A0B4A
:1032200053EC102B00F0A2FBCDE902010C46AA4999
:103230008C422FDB611A084318D19DED0C0B53EC27
:10324000102B9DED020B51EC100B01F09FF841EC9F
:103250001B0B9FEDA30B51EC1A0B53EC102B00F042
:1032600085FB53EC1B2B00F083FF2DD20220FDF7D2
:10327000A9F800F009FA10EE901A18EE900A8DEDF8
:10328000020B8DED008B61F31E0003909DED020B90
:10329000FFF7BEBB944A24F00041914214D39349F6
:1032A000214408437FF4EFAC9DED0C0B53EC102B45
:1032B0009DED020B51EC100B01F068F853EC1A2B4A
:1032C00000F056FF7FF6DFAC24F000408849894AC1
:1032D000002601EB205182422BDA481C4FF480116A
:1032E00021FA00F02044844AC0F30A517A44A1F242
:1032F000FF3192ED000B814A8DED080BCA4020EAA8
:103300000202C0F3130040F48010C1F1140120FA4E
:1033100001F60992002CB8BF76429DED080B53ECE4
:10332000102B9DED0C0B51EC100B01F02FF8CDE99B
:103330000C019DED0C0B51EC1A0B53EC102B00F013
:1033400015FB9FED6F0B0890CDE9085153EC102B46
:103350009DED080B51EC100B00F00CFE41EC1B0B2B
:103360009FED690B53EC102B9DED080B51EC100BEE
:1033700000F000FE9DED0C0B41EC1C0B53EC102BF0
:103380009DED080B51EC100B01F000F853EC1A2BDB
:1033900000F024FF9FED5E1B53EC112B00F0EAFDC3
:1033A00053EC1C2B00F0E2FA41EC1A0B51EC1B0B16
:1033B00053EC1A2B00F0DAFACDE902019DED020B75
:1033C00053EC1B2B51EC100B00F0E0FF53EC1A2BCD
:1033D00000F004FF9DED020B41EC1A0B53EC102B97
:1033E00051EC100B00F0C6FDCDE908014A489DEDF7
:1033F000080B0521784400F097F89DED081B51EC6F
:10340000100B53EC112B00F0B5FD9DED021B53EC9E
:10341000112B00F0E3FECDE906019DED020B53EC0C
:103420001A2B51EC100B00F0A5FD53EC1A2B00F0F9
:103430009DFA9FED3B0B41EC1A0B53EC102B9DEDCD
:10344000060B51EC100B00F0A1FF9DED060B41ECBB
:103450001B0B53EC102B9DED020B51EC100B00F0ED
:1034600089FD53EC1B2B00F0D9FB53EC1A2B00F019
:103470008DFF9DED021B53EC112B00F087FF53ECE9
:10348000192B00F0ABFECDE9020101EB065001154E
:103490000029C8BF039015DC9DED020B324651ECAC
:1034A000100B01F00AF9FFF78BF9042808BF00F0B0
:1034B000FBF832469DED020B51EC100B01F0FDF8CC
:1034C000CDE902019DED020B51EC180B53EC102BD2
:1034D00000F050FDFFF73ABB0000904000000000F4
:1034E000FE822B654715973C00CC904000346F3F1F
:1034F00001FCFFFF0000E03FF0140000FFFF0F00A1
:1035000000000000432EE63F396CA80C615C20BE31
:10351000EF39FAFE422EE63FC01300000000000023
:10352000000000000000004070B504462DED028B45
:103530004D1E00EBC500B0EE408AF0EE608A90EDC3
:10354000000B35F0060017D053EC182B51EC100B84
:1035500000F010FD41EC100B6D1E04EBC50090ED6A
:10356000001B51EC100B53EC112B00F0FFF941EC58
:10357000100B35F00600E7D1022D36D0042D1CD0FB
:10358000062D1CBFBDEC028B70BD53EC182B51EC0B
:10359000100B00F0EFFC94ED0A1B53EC112B00F024
:1035A000E5F953EC182B00F0E5FC94ED081B53EC07
:1035B000112B00F0DBF941EC100B53EC182B51EC04
:1035C000100B00F0D7FC94ED061B53EC112B00F010
:1035D000CDF953EC182B00F0CDFC94ED040B53EC1B
:1035E000102B00F0C3F941EC100B53EC182B51ECED
:1035F000100B00F0BFFC94ED021B53EC112B00F0FC
:10360000B5F953EC182B00F0B5FC94ED001B53EC0E
:10361000112B00F0ABF9BDEC028B41EC100B70BD2F
:103620009FED070B10B553EC102B9FED070B51ECE2
:10363000100B00F0F3FA41EC100B10BD000000007D
:103640000000000000000000000000000000F03F4B
:1036500010B553EC112B51EC100B00F087F941EC35
:10366000100B10BD000000009FED050B10B553ECD2
:10367000102B51EC100B00F0D1FA41EC100B10BDE7
:1036800000000000000000009FED050B10B553EC9A
:10369000102B51EC100B00F06DFC41EC100B10BD29
:1036A00000000000000000709FED050B10B553EC0A
:1036B000102B51EC100B00F05DFC41EC100B10BD19
:1036C000000000000000001082B0CDE9000121F0F0
:1036D000004001909DED000B02B051EC100B7047C3
:1036E000FDF794F8FEF79EFCFEF78AFAFEF7F4FA6F
:1036F00038483749002401600121C0E901144FF620
:10370000FF71C0E903148461FDF75FFDFEF79EFAC7
:10371000304831494838016044F61F61C0E901145E
:1037200040F2F311C0E903148461FDF74EFD29480E
:1037300000219038FEF7AAF9264800219038FDF7BD
:10374000DBFC244804219038FEF7A0F9214804212D
:103750009038FDF7D1FC1F4808219038FEF796F904
:103760001C4808219038FDF7C7FC1A484838FDF777
:10377000D7FD18480021D838FDF734FF154804213B
:10378000D838FDF72FFF13480821D838FDF72AFF56
:103790001248026840F255518A43026002680A43A7
:1037A000026000F01FF80120FCF7ECFE0020FEF79D
:1037B000F5FAFEF72DFC40F6B830FCF7EDFE084CAC
:1037C0002088FEF7F1FA0A20FCF7E6FEF8E7000091
:1037D000002000409C050020001C00402004014007
:1037E0000801002010B5FF228C212148FCF7B3FD11
:1037F0001F4900209FED1F0A11F18C0101EB80028F
:10380000401C82ED000A4028F8DB0A211A48FEF726
:10381000D7F9194814212830FEF7D2F916481E218D
:103820005030FEF7CDF9144828217830FEF7C8F95A
:1038300011483221A030FEF7C3F90F483C21C830AF
:10384000FEF7BEF90C484621F030FEF7B9F95021D9
:103850000A48FEF7B5F909485A212830FEF7B0F9B1
:1038600006486421BDE810405030FEF7A9B90000B9
:10387000A801002000C0DA45340300204C040020D9
:1038800000B52DED048B83B041EC190B00F0B2FCB8
:1038900041EC180B18EE100A18EE901A8DED008B03
:1038A000002818BF0120084320F00040C0F17F60CD
:1038B00000F1E040C00F14D019EE101A19EE900A72
:1038C0008DED009B002918BF0121084320F0004026
:1038D000C0F17F6000F1E040C00F04BF0120FCF7A1
:1038E00071FD51EC180B03B0BDEC048B00BD81F0F1
:1038F0000041704780F00040704721F00041704760
:1039000020F000407047000021F00042A2F1605218
:10391000B2F5801F01F0004328BFD2F17F6C0BD9B4
:103920005FEA001C43EAC20242EB507018BF7047C6
:1039300028BF20F001007047B2F5801FBCBF1846B9
:1039400070474FEA410C1CF5001F02D2084600F0F8
:103950007DBE70B500F0B8FB00000089FFF7F6BF30
:103960004FF00040A0F580007047000010B591EACC
:10397000030F48BF83F0004300F11085841A71EBF8
:10398000030C05D2121943EB0C03001B61EB0C0175
:10399000DFF824E14FEA1154A4EB135C1EEA430F55
:1039A00018BF9EEA445F73D023EA0E03DCF1200EB9
:1039B00021EA045143F4801332D322FA0CFE10EBB7
:1039C0000E0023FA0CFE41EB0E01CCF1200E03FA9F
:1039D0000EFE10EB0E0051F10001B1F5801FCCF18D
:1039E000200E32D201EB045112FA0EF2BDE8104063
:1039F00058BF7047401C38BF5FEA420218BF70478B
:103A0000002814BF20F0010041F100014FEA4103FA
:103A100013F5001F38BF7047A1F1C04100F0A2BBF1
:103A2000012A43EB0302ACF1200CDCF11F0E32BF84
:103A30004FF0000E23FA0CF310EB030041EB04519E
:103A4000B4EB115FD0D0A1EB045101F5801149080E
:103A50005FEA300001EB04510ED350F1000038BF93
:103A600012FA0EFE08D1BDE81040C9E7401C38BF6D
:103A70005FEA4202CAD1C3E7BDE810404FEA410302
:103A800013F5001F38BF7047A1F1C04100F06ABBB9
:103A90009EEA445F08D011EA5E0FBDE8104004BF03
:103AA00001F0004100207047BDE8104070B500F003
:103AB0000BFB00BF64FBBE3E0000E0FF02494FF07D
:103AC000000000F0C8BD00BF0000F87F51EA030C01
:103AD00017D41CF5801F58BFBCF5801F00F106806D
:103AE000994218BF704708BF9042704707D711F539
:103AF000801F58BF13F5801F26D499427047894212
:103B000070471CF5801F08D5BCF5801FF7D58B4288
:103B100018BF704708BF824270474FF4001C1CEB6F
:103B2000410F38BF1CEB430F0ED28B42704770B56C
:103B3000FFF7CCFFEFF3008020F0104038BF40F0DB
:103B4000004080F3008870BDBDE8704070B500F0A3
:103B5000BBFA00BF0000000900F053B84FF040402E
:103B600010F1004FEFF30080704751EA030C17D4B7
:103B70001CF5801F58BFBCF5801F00F106809942DC
:103B800018BF704708BF9042704707D711F5801FD4
:103B900058BF13F5801F26D4994270478942704759
:103BA0001CF5801F08D5BCF5801FF7D58B4218BFC8
:103BB000704708BF824270474FF4001C1CEB410F56
:103BC00038BF1CEB430F0ED28B42704770B5FFF726
:103BD000CCFFEFF3008020F0104038BF40F00040F1
:103BE00080F3008870BD00F06FFA00BF000000098C
:103BF00000F007B84FF0404010F1004FEFF30080A5
:103C00007047491058BFC1F140415B1058BFC3F124
:103C100040438B42EFF30080704700002DE9C04124
:103C200030B4DFF8A0C23CEA111418BF3CEA131408
:103C300000F0EC8081EA03051CEA111444EAD57413
:103C400018BF1CEA131500F0C780A4EB05044FF061
:103C5000004545EAC12145EAC32341EA505143EA00
:103C6000525304F17F74994204F500344FEAC020A6
:103C70004FEAC22208BF904200F09C804FEA1365D1
:103C80000FF24016765D4FEA134506FB05F7C7F1C4
:103C9000807706FB07F74FEAD737A7FB0368764222
:103CA000C8F58038A7FB06CE38BFA8F1010807FB8E
:103CB00008E64FF0000EA6FB028CE6FB03CEDCF11B
:103CC000000CCEF1004E38BFAEF1010EA6FB0C5831
:103CD0004FF000074FF00005E6FB0E87A1FB08C67A
:103CE000A0FB07CE16EB0E0645F10005E1FB0765CC
:103CF00015F1E04E7EBFA4F580345FEA46066D41C3
:103D000016F1800745F100054FEA17274FEA0666CE
:103D100047EA0567A6F1DE46B6F1805F4FEA152552
:103D20001FD9384624F0010C05EBC471BCF1FE6FBD
:103D300001EB0C1102D8F0BCBDE8008124425CBF4D
:103D400001F5801E9EEAC47F02D4F0BCBDE800816C
:103D5000244238D4F0BCA1F1C041BDE8004100F0DC
:103D600001BA4FEAD22242EA43524FEAD323A7FBD9
:103D700002864FEAD02040EA415007FB03661EEA64
:103D80000E0F4FEAD12105FB026658BFA6EB005685
:103D9000B6EB00564FEA520E4EEAC37E18EB0E0EFB
:103DA00056EB530EBDD518EB02085E417F1C55F152
:103DB0000005B6E74FF480154FF000074FF00006FE
:103DC0004FF00008ADE7F0BC4FF0000001F1C0413A
:103DD00001F00041BDE8008111EA0C1F0CEA131547
:103DE00000D00CE013EA0C1F00F025804FF000001B
:103DF000F0BC81EA030101F00041BDE80081F0BCA4
:103E0000BDE8004181EA030100F0ACB9F0BCBDE8B7
:103E1000004170B500F058F9097EFC3E00F007B88B
:103E200081EA03014FF0000001F00041704781EA90
:103E3000030100F097B9F0BCBDE800414FF000006D
:103E400021497047FFFDFBF9F7F5F4F2F0EEEDEBD9
:103E5000E9E8E6E4E3E1E0DEDDDBDAD8D7D5D4D388
:103E6000D1D0CFCDCCCBCAC8C7C6C5C4C2C1C0BFD4
:103E7000BEBDBCBBBAB9B8B7B6B5B4B3B2B1B0AFDA
:103E8000AEADACABAAA9A8A8A7A6A5A4A3A3A2A1BE
:103E9000A09F9F9E9D9C9C9B9A9999989797969579
:103EA00095949393929191908F8F8E8E8D8C8C8B15
:103EB0008B8A89898888878786858584848383829D
:103EC000828181800000FF070000F87F10F000422F
:103ED00048BF4042B0FA80F310FA03F10AD0C3F1B0
:103EE0001D0303F580634FEA415002EB035202EBDE
:103EF000D12170474FF000007047000051EA030CD9
:103F000017D41CF5801F58BFBCF5801F00F1068038
:103F1000994218BF704708BF9042704707D711F504
:103F2000801F58BF13F5801F19D4994270478942EA
:103F300070471CF5801F08D5BCF5801FF7D58B4254
:103F400018BF704708BF824270474FF4001C1CEB3B
:103F5000410F38BF1CEB430F01D28B42704770B545
:103F600000F0B2F8922449004FF000514FF0805316
:103F7000FFF747BEDFF848C170B51CEA111E1EBF2F
:103F80001CEA13159EEA0C0F95EA0C0F00F06F80E7
:103F900081EA030423EA4C134EEAD47E21EA4C1151
:103FA00041F4801143F48013AE44A1FB024CA0FB0A
:103FB0000365AEF17F7E361955EB0C05A1FB034C72
:103FC0004CF10003A0FB021C16EB0C06654153F1FB
:103FD0000003094218BF46F0010613F4007F0BD11D
:103FE0004FEA03314FEA0530340341EA155140EA04
:103FF00016506FF003020AE04FEAC3214FEAC520D2
:10400000F40241EA555140EA56506FF0020202EBC9
:104010002E4201EB025585EACE710AD05FEA440CCC
:1040200018BF24F0004450F1000041F1000120EAE3
:10403000D47040F2FE7C624500D270BDA84214BF2D
:104040004FF080444FF04044002E08BF0024BEF1E2
:10405000806FA8BFA1F1C041BDE8704080F28280AE
:104060004FF0000001F1C04101F0004170479EEAAD
:104070000C0F0CEA131518BF95EA0C0F06D04FF081
:10408000000081EA030E0EF0004170BD00F01CF844
:104090008900013E00F007B800F009B84FEA430C70
:1040A0005FEA5C5C08D081EA030100F05BB84FEA8C
:1040B000410C5FEA5C5CF6D14FF0000001497047AB
:1040C0000000FF070000F87F0EF1020E2EF0030E35
:1040D0005EF8046B364205D4012A43EB030515F55F
:1040E000001F12D8012841EB010C1CF5001F0CD851
:1040F0000ED14FEAD17C15F5001F0CEB4C0C0CF1E6
:10410000020C08BF4CEBD37C04E04FF0080C01E03C
:104110004FEAD37C0CEB4C0526FA05F606F00706B1
:10412000B6F1040C06D20EEB860CBDE870404CF0E4
:10413000010C6047DFE80CF0090B02024FF0004170
:104140004FF00000A1F5002170BD1946104601286E
:1041500051EB010418BFD4F5001484BF002001F016
:10416000004170BD0808A0F500114FEA3101704709
:1041700053EA010C17D41CF5801F58BFBCF5801FF3
:1041800000F106808B4218BF704708BF824270471B
:1041900007D713F5801F58BF11F5801F19D48B4224
:1041A00070479B4270471CF5801F08D5BCF5801FE7
:1041B000F7D5994218BF704708BF904270474FF437
:1041C000001C1CEB430F38BF1CEB410F01D299427E
:1041D00070470FB40CBC03BCFFF7C1BE91EA030FDC
:1041E00010B581F000413FF5C9AB83F0004300F00A
:1041F000D5B800002DE9F04101F5801CBCF5001F89
:10420000C0F2A9804FEA115C21EA0C510CF1FD0CBF
:1042100041F480115FEA5C0C0CF5C07C01D34000D6
:10422000494130A4890241EA905187028E0E0A0C5E
:10423000A45D04FB04F602FB06F6C6F14046A4FBAF
:104240000662F60D46EA422606FB06F4A4FB0123AD
:104250005242C3F1404338BF5B1EA6FB024200241A
:10426000E6FB0324D20B42EA4446A6FB0623A1FB4D
:1042700002E2A3FB07E4E3FB61426442C2F1404E69
:1042800038BFAEF1010EA6FB04234FF00002E6FB9F
:104290000E32A2FB03463400E2FB6264A1FB06E699
:1042A000A4FB07E8E4FB61687642C8F1405838BFD8
:1042B000A8F10108A2FB06E4A3FB08E5E2FB6854B1
:1042C000A1FB05E6A7FB04E8E1FB648618F12005E5
:1042D00056F10006A809A8F11B08B10908F03F082B
:1042E000B8F10A0F40EA86601CD901EB0C51BDE819
:1042F000F08100BFFCF5EEE8E2DDD8D3CFCBC7C339
:10430000C0BDB9B6B4B1AEACA9A7A5A3A19F9D9BF2
:104310009A9896959392908F8D8C8B8988878685B5
:1043200084838281A0FB006800FB01F208EB420855
:10433000B8EB872807D5341858EB0104D5D5401CB5
:1043400051F10001D1E7341A78EB0104CDD4401EBD
:1043500071F10001C9E75FEA4C0C5FEA9C5C0DD18A
:1043600005D34FF0000001F00041BDE8F081BDE849
:10437000F04170B5FFF7A8FE6DDBFFBEBDE8F04170
:104380004FF00000004970470000F87F10B591EA37
:10439000030F48BF83F000433FF5F0AA841A71EB86
:1043A000030C07D212198CF0004C43EB0C03001BDA
:1043B00061EB0C01DFF8A4E14FEA1154A4EB135CAC
:1043C0001EEA430F18BF9EEA445F00F0B08023EA64
:1043D0006E03524221EA0451C3EB6E0338BF5B1EE9
:1043E000DCF1200E25D322FA0CFE10EB0E0043FA6E
:1043F0000CFE41EB0E01CCF1200E03FA0EFE10EB89
:104400000E0051F10001CCF1200E29D412FA0EF267
:1044100001EB0451BDE8104058BF7047401C1CBF61
:10442000B2F1004F704700280CBF491C20F001007A
:10443000704712EB020E43EB030218BF4FF0010E60
:104440004EEA4202ACF1200CDCF11E0E54D943FAC4
:104450000CFE10EB0E0051F1FF31CCF11E0ED5D544
:104460000EF1010E12FA0EFE404141EB010101EB8B
:10447000445C5FEA5C5C10D910EBDE7001EB045128
:1044800038BFBEF1004FBDE8104018BF704700288C
:104490000CBF491C20F00100704730D24FEAD42CE9
:1044A00011F5001124F400641BD0B1FA81F20B3A2B
:1044B000A41AA41ED2F12003914030FA03F3194349
:1044C000904001EBCC71002C01EB0451BDE8104091
:1044D000A8BF704701F1C0414FF0000001F000415A
:1044E0007047B0FA80F310FA03F100D110BDE41A5E
:1044F000173C4805C90AE4E701EB045110BD491017
:1045000001EB0451BDE810404FEA300002E04FF0EB
:10451000000170474A0008BF0042F8D0B2F5001F02
:1045200028BF704701F000414FF0000070479EEA3D
:10453000445F07D011EA5E0FBDE8104004BF0021C0
:1045400000207047BDE8104070B5FFF7BDFD00BF0B
:1045500040DFF63E83F00041104670470000E0FF68
:1045600043004FEAD30C4FEA3C0C43401FBF4007C7
:104570000CF1605113F0FE4F70471CF0006F03D137
:1045800000200CF0004170470CF0004343EA5070EB
:1045900010B540EACC0000F00EF800BF0000009219
:1045A0004FEA0001FFF7DEBD4FF000414FF0000081
:1045B000A1F5002170470EF1020E2EF0030E5EF8F9
:1045C000044B244204D44FEA4102B2F17F4F11D888
:1045D0004FEA4003B3F17F4F0CD80ED14FEAD07CA5
:1045E000B2F17F4F0CEB4C0C0CF1020C08BF4CEB02
:1045F000D17C04E04FF0080C01E04FEAD17C0CEBD9
:104600004C0324FA03F404F00704B4F1040C06D2BA
:104610000EEB840CBDE810404CF0010C6047DFE865
:104620000CF0070802024FF00040A0F5800010BD1A
:104630000846420018BFD2F1807288BF00F00040E7
:1046400010BD4FF04070E1EE100A7047FF2141EAC3
:10465000D050C00570470CF00F03092B08BF08208D
:1046600000F059800A2B0BD0082B18BF704708BFE9
:104670001CF0400F0AD04FF000004FF000017047CF
:104680001CF0400F18BF4FF0004070471CF0100F97
:1046900008D020F0704300F07F4242EAD3014FEA95
:1046A0004370704700F0604021F07F4242EA000210
:1046B00001F07F4040EA727070474FF0FF0C4CF4FD
:1046C000E06C1CEA11531CBF9CEA030C9445C2BF6A
:1046D000DA4201EB02517047002B0DD0BCF1000F04
:1046E0000FD0002A01F00041A4BF41F0E04141F0A9
:1046F0007F614FF00000704701F000414FF0000073
:10470000704750EA01334FF09B0C18BF4CF0806C9F
:104710007FF4D4A970471CF4801F11D01CF4E02F43
:1047200003D06FEACC31490070474FF04050EFF3AF
:10473000008222F0704242EA000282F30088704751
:104740004FF0000070470000000000000000010270
:104750000304060708090000000000000000F03F05
:10476000000000000000F83F000000000000000012
:104770000000004003B8E23F00000000000000001D
:1047800006D0CF43EBFD4C3E033333333333E33FAB
:10479000FFAB6FDBB66DDB3F4D268F515555D53FD7
:1047A00001411DA96074D13F65DBC9934A86CD3FA5
:1047B000EF4E454A287ECA3F3E5555555555C53F93
:1047C00093BDBE166CC166BF2CDE25AF6A56113F85
:1047D000F16BD2C541BDBBBED0A4BE726937663E87
:1047E0000000000000000000084800080000002051
:1047F0001C010000C4010008244900081C0100201D
:104800002C0B0000E0010008010000000200000085
:10481000000000000417010000000000581B000009
:1048200000000000000000005C0300200000000009
:104830000000000000000000000000000000000078
:104840000000000000000000000000000000000068
:104850000000000000000000000000000000000058
:104860000000000000000000000000000000000048
:1048700044E5423DC1ACC23DFDBA113E17CB413EBD
:10488000CE6A713E423F903E7675A73E8D4ABE3E4F
:104890004AB1D43EAE9CEA3E0200003F72670A3F36
:1048A0009E7E143FAD3F1E3FF6A4273F07A9303F31
:1048B000A546393FD078413FC93A493F0F88503F1C
:1048C000665C573FD9B35D3FBA8A633FA6DD683F58
:1048D00087A96D3F94EB713F56A1753FA6C8783FFD
:1048E000AF5F7B3FF1647D3F40D77E3FC5B57F3FE3
:1048F0000000803F40D77E3FAF5F7B3F56A1753FB2
:1049000087A96D3FBA8A633F665C573FC93A493F02
:10491000640000000024F40001000000100000000A
:044920000000000093
:040000050800018965
:00000001FF
